{"contracts/PredictionMarket.sol":{"PredictionMarket":{"abi":[{"inputs":[{"internalType":"address","name":"_bettingToken","type":"address"}],"stateMutability":"nonpayable","type":"constructor"},{"anonymous":false,"inputs":[{"indexed":false,"internalType":"uint256","name":"marketId","type":"uint256"},{"indexed":false,"internalType":"address","name":"user","type":"address"},{"indexed":false,"internalType":"uint256","name":"amount","type":"uint256"},{"indexed":false,"internalType":"uint256","name":"outcomeIndex","type":"uint256"},{"indexed":false,"internalType":"address","name":"token","type":"address"}],"name":"BetPlaced","type":"event"},{"anonymous":false,"inputs":[{"indexed":false,"internalType":"uint256","name":"marketId","type":"uint256"},{"indexed":false,"internalType":"string","name":"question","type":"string"},{"indexed":false,"internalType":"string[]","name":"outcomes","type":"string[]"},{"indexed":false,"internalType":"uint256","name":"resolutionTime","type":"uint256"},{"indexed":false,"internalType":"address","name":"bettingAsset","type":"address"}],"name":"MarketCreated","type":"event"},{"anonymous":false,"inputs":[{"indexed":false,"internalType":"uint256","name":"marketId","type":"uint256"},{"indexed":false,"internalType":"uint256","name":"winningOutcome","type":"uint256"}],"name":"MarketResolved","type":"event"},{"anonymous":false,"inputs":[{"indexed":true,"internalType":"address","name":"previousOwner","type":"address"},{"indexed":true,"internalType":"address","name":"newOwner","type":"address"}],"name":"OwnershipTransferred","type":"event"},{"inputs":[],"name":"BET_FEE","outputs":[{"internalType":"uint256","name":"","type":"uint256"}],"stateMutability":"view","type":"function"},{"inputs":[],"name":"MIN_STAKE","outputs":[{"internalType":"uint256","name":"","type":"uint256"}],"stateMutability":"view","type":"function"},{"inputs":[],"name":"bettingToken","outputs":[{"internalType":"contract IERC20","name":"","type":"address"}],"stateMutability":"view","type":"function"},{"inputs":[{"internalType":"string","name":"_question","type":"string"},{"internalType":"string[]","name":"_outcomes","type":"string[]"},{"internalType":"uint256","name":"_resolutionTime","type":"uint256"},{"internalType":"address","name":"_bettingAsset","type":"address"}],"name":"createMarket","outputs":[],"stateMutability":"nonpayable","type":"function"},{"inputs":[{"internalType":"uint256","name":"_marketId","type":"uint256"}],"name":"getOutcomesLength","outputs":[{"internalType":"uint256","name":"","type":"uint256"}],"stateMutability":"view","type":"function"},{"inputs":[{"internalType":"uint256","name":"","type":"uint256"},{"internalType":"uint256","name":"","type":"uint256"}],"name":"marketBets","outputs":[{"internalType":"address","name":"user","type":"address"},{"internalType":"uint256","name":"amount","type":"uint256"},{"internalType":"uint256","name":"outcomeIndex","type":"uint256"},{"internalType":"address","name":"token","type":"address"}],"stateMutability":"view","type":"function"},{"inputs":[],"name":"marketCount","outputs":[{"internalType":"uint256","name":"","type":"uint256"}],"stateMutability":"view","type":"function"},{"inputs":[{"internalType":"uint256","name":"","type":"uint256"},{"internalType":"uint256","name":"","type":"uint256"}],"name":"marketOutcomes","outputs":[{"internalType":"string","name":"","type":"string"}],"stateMutability":"view","type":"function"},{"inputs":[{"internalType":"uint256","name":"","type":"uint256"}],"name":"markets","outputs":[{"internalType":"string","name":"question","type":"string"},{"internalType":"uint256","name":"resolutionTime","type":"uint256"},{"internalType":"bool","name":"resolved","type":"bool"},{"internalType":"uint256","name":"winningOutcome","type":"uint256"},{"internalType":"address","name":"bettingAsset","type":"address"}],"stateMutability":"view","type":"function"},{"inputs":[],"name":"owner","outputs":[{"internalType":"address","name":"","type":"address"}],"stateMutability":"view","type":"function"},{"inputs":[{"internalType":"uint256","name":"_marketId","type":"uint256"},{"internalType":"uint256","name":"_outcomeIndex","type":"uint256"},{"internalType":"uint256","name":"_amount","type":"uint256"},{"internalType":"address","name":"_tokenAddress","type":"address"}],"name":"placeBet","outputs":[],"stateMutability":"nonpayable","type":"function"},{"inputs":[],"name":"renounceOwnership","outputs":[],"stateMutability":"nonpayable","type":"function"},{"inputs":[{"internalType":"uint256","name":"_marketId","type":"uint256"},{"internalType":"uint256","name":"_winningOutcome","type":"uint256"}],"name":"resolveMarket","outputs":[],"stateMutability":"nonpayable","type":"function"},{"inputs":[{"internalType":"uint256","name":"marketId","type":"uint256"},{"internalType":"uint256","name":"amount","type":"uint256"},{"internalType":"uint256","name":"outcomeIndex","type":"uint256"},{"internalType":"address","name":"user","type":"address"},{"internalType":"address","name":"tokenAddress","type":"address"}],"name":"simulateCrossChainCall","outputs":[],"stateMutability":"nonpayable","type":"function"},{"inputs":[{"internalType":"uint256","name":"amount","type":"uint256"},{"internalType":"address","name":"tokenAddress","type":"address"}],"name":"stakeTokens","outputs":[],"stateMutability":"nonpayable","type":"function"},{"inputs":[{"internalType":"address","name":"","type":"address"},{"internalType":"address","name":"","type":"address"}],"name":"stakes","outputs":[{"internalType":"uint256","name":"","type":"uint256"}],"stateMutability":"view","type":"function"},{"inputs":[{"internalType":"address","name":"newOwner","type":"address"}],"name":"transferOwnership","outputs":[],"stateMutability":"nonpayable","type":"function"}],"evm":{"bytecode":{"linkReferences":{},"object":"608060405234801561001057600080fd5b5060405162001b8138038062001b81833981016040819052610031916100af565b61003a3361005f565b600180546001600160a01b0319166001600160a01b03929092169190911790556100df565b600080546001600160a01b038381166001600160a01b0319831681178455604051919092169283917f8be0079c531659141344cd1fd0a4f28419497f9722a3daafe3b4186f6b6457e09190a35050565b6000602082840312156100c157600080fd5b81516001600160a01b03811681146100d857600080fd5b9392505050565b611a9280620000ef6000396000f3fe608060405234801561001057600080fd5b506004361061010b5760003560e01c8063b402f1f5116100a2578063ec97908211610071578063ec97908214610246578063f0c68c1e1461024f578063f2e5502114610262578063f2fde38b146102a4578063f6c9eda0146102b757600080fd5b8063b402f1f5146101f1578063cb1c2b5c14610211578063d5bea1e414610220578063e14ec9591461023357600080fd5b8063715018a6116100de578063715018a61461017b5780638da5cb5b14610183578063a4e47b6614610194578063b1283e77146101cd57600080fd5b80630bea440d1461011057806343425e88146101255780634e3978b3146101555780636055733314610168575b600080fd5b61012361011e366004611634565b6102c5565b005b600154610138906001600160a01b031681565b6040516001600160a01b0390911681526020015b60405180910390f35b610123610163366004611679565b610388565b610123610176366004611657565b6106f8565b610123610880565b6000546001600160a01b0316610138565b6101bf6101a23660046114c0565b600560209081526000928352604080842090915290825290205481565b60405190815260200161014c565b6101e06101db36600461161b565b610894565b60405161014c95949392919061175d565b6102046101ff366004611657565b610958565b60405161014c919061174a565b6101bf670de0b6b3a764000081565b61012361022e3660046116ad565b610a11565b610123610241366004611515565b610cf7565b6101bf60065481565b6101bf61025d36600461161b565b610eed565b610275610270366004611657565b610f2f565b604080516001600160a01b0395861681526020810194909452830191909152909116606082015260800161014c565b6101236102b236600461149e565b610f81565b6101bf662386f26fc1000081565b6040516323b872dd60e01b8152336004820152306024820152604481018390526001600160a01b038216906323b872dd90606401602060405180830381600087803b15801561031357600080fd5b505af1158015610327573d6000803e3d6000fd5b505050506040513d601f19601f8201168201806040525081019061034b91906114f3565b503360009081526005602090815260408083206001600160a01b03851684529091528120805484929061037f908490611954565b90915550505050565b60008411801561039a57506006548411155b6103bf5760405162461bcd60e51b81526004016103b69061179d565b60405180910390fd5b600082116103df5760405162461bcd60e51b81526004016103b69061184f565b60008481526002602081905260409091200154421061043b5760405162461bcd60e51b815260206004820152601860248201527710995d1d1a5b99c81c195c9a5bd9081a185cc8195b99195960421b60448201526064016103b6565b60008481526002602052604090206003015460ff161561046d5760405162461bcd60e51b81526004016103b6906117c8565b60008481526003602052604090205483106104c25760405162461bcd60e51b8152602060048201526015602482015274092dcecc2d8d2c840deeae8c6dedaca40d2dcc8caf605b1b60448201526064016103b6565b6000848152600260205260409020600501546001600160a01b0382811691161461052e5760405162461bcd60e51b815260206004820152601d60248201527f496e76616c696420746f6b656e20666f722074686973206d61726b657400000060448201526064016103b6565b3360009081526005602090815260408083206001600160a01b0385168452909152902054670de0b6b3a764000011156105795760405162461bcd60e51b81526004016103b6906117ff565b600061058c662386f26fc1000084611954565b6040516323b872dd60e01b8152336004820152306024820152604481018290529091506001600160a01b038316906323b872dd90606401602060405180830381600087803b1580156105dd57600080fd5b505af11580156105f1573d6000803e3d6000fd5b505050506040513d601f19601f8201168201806040525081019061061591906114f3565b506000858152600460208181526040808420815160808082018452338083528286018b81528386018d81526001600160a01b038c81166060808801828152895460018082018c559a8f529d8c902098519d909c0290970180546001600160a01b03199081169d84169d909d1781559351978401979097559051600283015597516003909101805490991697169690961790965582518b815293840194909452908201879052918101879052918201527f0c8bcdba2d7eab17e989c0f1127e932c79e9d78a8420f1be088be84be6d76fe89060a00160405180910390a15050505050565b610700610ffa565b60008211801561071257506006548211155b61072e5760405162461bcd60e51b81526004016103b69061179d565b600082815260026020819052604090912001544210156107875760405162461bcd60e51b8152602060048201526014602482015273546f6f206561726c7920746f207265736f6c766560601b60448201526064016103b6565b60008281526002602052604090206003015460ff16156107b95760405162461bcd60e51b81526004016103b6906117c8565b60008281526003602052604090205481106108165760405162461bcd60e51b815260206004820152601760248201527f496e76616c69642077696e6e696e67206f7574636f6d6500000000000000000060448201526064016103b6565b600082815260026020526040902060038101805460ff191660011790556004018190556108438282611054565b60408051838152602081018390527f6dfc24f0f2fb42e49fb4fa3ffa8abb148cab908a1fb8335b3f128a08b2594af1910160405180910390a15050565b610888610ffa565b6108926000611279565b565b6002602052600090815260409020805481906108af906119c4565b80601f01602080910402602001604051908101604052809291908181526020018280546108db906119c4565b80156109285780601f106108fd57610100808354040283529160200191610928565b820191906000526020600020905b81548152906001019060200180831161090b57829003601f168201915b505050506002830154600384015460048501546005909501549394919360ff90911692506001600160a01b031685565b6003602052816000526040600020818154811061097457600080fd5b90600052602060002001600091509150508054610990906119c4565b80601f01602080910402602001604051908101604052809291908181526020018280546109bc906119c4565b8015610a095780601f106109de57610100808354040283529160200191610a09565b820191906000526020600020905b8154815290600101906020018083116109ec57829003601f168201915b505050505081565b600085118015610a2357506006548511155b610a3f5760405162461bcd60e51b81526004016103b69061179d565b60008411610a5f5760405162461bcd60e51b81526004016103b69061184f565b600085815260026020819052604090912001544210610abb5760405162461bcd60e51b815260206004820152601860248201527710995d1d1a5b99c81c195c9a5bd9081a185cc8195b99195960421b60448201526064016103b6565b60008581526002602052604090206003015460ff1615610aed5760405162461bcd60e51b81526004016103b6906117c8565b6000858152600360205260409020548310610b425760405162461bcd60e51b8152602060048201526015602482015274092dcecc2d8d2c840deeae8c6dedaca40d2dcc8caf605b1b60448201526064016103b6565b6000858152600260205260409020600501546001600160a01b03828116911614610bae5760405162461bcd60e51b815260206004820152601d60248201527f496e76616c696420746f6b656e20666f722074686973206d61726b657400000060448201526064016103b6565b6001600160a01b03808316600090815260056020908152604080832093851683529290522054670de0b6b3a76400001115610bfb5760405162461bcd60e51b81526004016103b6906117ff565b6000610c0e662386f26fc10000866119ad565b60008781526004602081815260408084208151608080820184526001600160a01b038b81168084528387018a81528487018f81528d84166060808801828152895460018082018c559a8f529d8c902098519d909c0290970180546001600160a01b03199081169d87169d909d178155925197830197909755516002820155975160039098018054909916979091169690961790965582518d815293840194909452908201859052918101889052918201529091507f0c8bcdba2d7eab17e989c0f1127e932c79e9d78a8420f1be088be84be6d76fe89060a00160405180910390a1505050505050565b428211610d545760405162461bcd60e51b815260206004820152602560248201527f5265736f6c7574696f6e2074696d65206d75737420626520696e207468652066604482015264757475726560d81b60648201526084016103b6565b600283511015610da65760405162461bcd60e51b815260206004820152601e60248201527f4174206c656173742074776f206f7574636f6d6573207265717569726564000060448201526064016103b6565b60068054906000610db6836119ff565b90915550506040805160c0810182528581526020808201869052818301859052600060608301819052608083018190526001600160a01b03851660a0840152600654815260028252929092208151805192939192610e1792849201906112c9565b506020828101518051610e30926001850192019061134d565b50604082810151600283015560608301516003808401805460ff1916921515929092179091556080840151600484015560a090930151600590920180546001600160a01b0319166001600160a01b039093169290921790915560065460009081526020928352208451610ea59286019061134d565b507fcdbddd7cdb96b0cf3143b6a445a9fd5f49db9adb1c70bf7715f68fc69c2d7dc560065485858585604051610edf959493929190611893565b60405180910390a150505050565b60008082118015610f0057506006548211155b610f1c5760405162461bcd60e51b81526004016103b69061179d565b5060009081526003602052604090205490565b60046020528160005260406000208181548110610f4b57600080fd5b600091825260209091206004909102018054600182015460028301546003909301546001600160a01b0392831695509093501684565b610f89610ffa565b6001600160a01b038116610fee5760405162461bcd60e51b815260206004820152602660248201527f4f776e61626c653a206e6577206f776e657220697320746865207a65726f206160448201526564647265737360d01b60648201526084016103b6565b610ff781611279565b50565b6000546001600160a01b031633146108925760405162461bcd60e51b815260206004820181905260248201527f4f776e61626c653a2063616c6c6572206973206e6f7420746865206f776e657260448201526064016103b6565b6000828152600460209081526040808320600290925282206005015490916001600160a01b039091169080805b845481101561112a5784818154811061109c5761109c611a30565b906000526020600020906004020160010154836110b99190611954565b9250858582815481106110ce576110ce611a30565b9060005260206000209060040201600201541415611118578481815481106110f8576110f8611a30565b906000526020600020906004020160010154826111159190611954565b91505b80611122816119ff565b915050611081565b5080156112715760005b845481101561126f578585828154811061115057611150611a30565b906000526020600020906004020160020154141561125d576000828487848154811061117e5761117e611a30565b90600052602060002090600402016001015461119a919061198e565b6111a4919061196c565b9050846001600160a01b031663a9059cbb8784815481106111c7576111c7611a30565b600091825260209091206004918202015460405160e084901b6001600160e01b03191681526001600160a01b039091169181019190915260248101849052604401602060405180830381600087803b15801561122257600080fd5b505af1158015611236573d6000803e3d6000fd5b505050506040513d601f19601f8201168201806040525081019061125a91906114f3565b50505b80611267816119ff565b915050611134565b505b505050505050565b600080546001600160a01b038381166001600160a01b0319831681178455604051919092169283917f8be0079c531659141344cd1fd0a4f28419497f9722a3daafe3b4186f6b6457e09190a35050565b8280546112d5906119c4565b90600052602060002090601f0160209004810192826112f7576000855561133d565b82601f1061131057805160ff191683800117855561133d565b8280016001018555821561133d579182015b8281111561133d578251825591602001919060010190611322565b506113499291506113a6565b5090565b82805482825590600052602060002090810192821561139a579160200282015b8281111561139a578251805161138a9184916020909101906112c9565b509160200191906001019061136d565b506113499291506113bb565b5b8082111561134957600081556001016113a7565b808211156113495760006113cf82826113d8565b506001016113bb565b5080546113e4906119c4565b6000825580601f106113f4575050565b601f016020900490600052602060002090810190610ff791906113a6565b80356001600160a01b038116811461142957600080fd5b919050565b600082601f83011261143f57600080fd5b813567ffffffffffffffff81111561145957611459611a46565b61146c601f8201601f1916602001611923565b81815284602083860101111561148157600080fd5b816020850160208301376000918101602001919091529392505050565b6000602082840312156114b057600080fd5b6114b982611412565b9392505050565b600080604083850312156114d357600080fd5b6114dc83611412565b91506114ea60208401611412565b90509250929050565b60006020828403121561150557600080fd5b815180151581146114b957600080fd5b6000806000806080858703121561152b57600080fd5b843567ffffffffffffffff8082111561154357600080fd5b61154f8883890161142e565b955060209150818701358181111561156657600080fd5b8701601f8101891361157757600080fd5b80358281111561158957611589611a46565b8060051b611598858201611923565b8281528581019084870183860188018e10156115b357600080fd5b600093505b848410156115f2578035878111156115cf57600080fd5b6115dd8f8a838a010161142e565b845250600193909301929187019187016115b8565b50809950505050505050506040850135915061161060608601611412565b905092959194509250565b60006020828403121561162d57600080fd5b5035919050565b6000806040838503121561164757600080fd5b823591506114ea60208401611412565b6000806040838503121561166a57600080fd5b50508035926020909101359150565b6000806000806080858703121561168f57600080fd5b84359350602085013592506040850135915061161060608601611412565b600080600080600060a086880312156116c557600080fd5b8535945060208601359350604086013592506116e360608701611412565b91506116f160808701611412565b90509295509295909350565b6000815180845260005b8181101561172357602081850181015186830182015201611707565b81811115611735576000602083870101525b50601f01601f19169290920160200192915050565b6020815260006114b960208301846116fd565b60a08152600061177060a08301886116fd565b602083019690965250921515604084015260608301919091526001600160a01b0316608090910152919050565b602080825260119082015270125b9d985b1a59081b585c9ad95d081251607a1b604082015260600190565b60208082526017908201527f4d61726b657420616c7265616479207265736f6c766564000000000000000000604082015260600190565b60208082526030908201527f4d757374207374616b65206174206c65617374203120746f6b656e20666f722060408201526f537962696c20726573697374616e636560801b606082015260800190565b60208082526024908201527f42657420616d6f756e74206d7573742062652067726561746572207468616e206040820152637a65726f60e01b606082015260800190565b8581526000602060a0818401526118ad60a08401886116fd565b8381036040850152865180825282820190600581901b83018401848a0160005b838110156118fb57601f198684030185526118e98383516116fd565b948701949250908601906001016118cd565b50506060870198909852505050506001600160a01b0392909216608090910152509392505050565b604051601f8201601f1916810167ffffffffffffffff8111828210171561194c5761194c611a46565b604052919050565b6000821982111561196757611967611a1a565b500190565b60008261198957634e487b7160e01b600052601260045260246000fd5b500490565b60008160001904831182151516156119a8576119a8611a1a565b500290565b6000828210156119bf576119bf611a1a565b500390565b600181811c908216806119d857607f821691505b602082108114156119f957634e487b7160e01b600052602260045260246000fd5b50919050565b6000600019821415611a1357611a13611a1a565b5060010190565b634e487b7160e01b600052601160045260246000fd5b634e487b7160e01b600052603260045260246000fd5b634e487b7160e01b600052604160045260246000fdfea26469706673582212201f8838b2cb1cec0d477277bca658c0108adc822e12427e1e1c212c53fffd669964736f6c63430008070033","opcodes":"PUSH1 0x80 PUSH1 0x40 MSTORE CALLVALUE DUP1 ISZERO PUSH2 0x10 JUMPI PUSH1 0x0 DUP1 REVERT JUMPDEST POP PUSH1 0x40 MLOAD PUSH3 0x1B81 CODESIZE SUB DUP1 PUSH3 0x1B81 DUP4 CODECOPY DUP2 ADD PUSH1 0x40 DUP2 SWAP1 MSTORE PUSH2 0x31 SWAP2 PUSH2 0xAF JUMP JUMPDEST PUSH2 0x3A CALLER PUSH2 0x5F JUMP JUMPDEST PUSH1 0x1 DUP1 SLOAD PUSH1 0x1 PUSH1 0x1 PUSH1 0xA0 SHL SUB NOT AND PUSH1 0x1 PUSH1 0x1 PUSH1 0xA0 SHL SUB SWAP3 SWAP1 SWAP3 AND SWAP2 SWAP1 SWAP2 OR SWAP1 SSTORE PUSH2 0xDF JUMP JUMPDEST PUSH1 0x0 DUP1 SLOAD PUSH1 0x1 PUSH1 0x1 PUSH1 0xA0 SHL SUB DUP4 DUP2 AND PUSH1 0x1 PUSH1 0x1 PUSH1 0xA0 SHL SUB NOT DUP4 AND DUP2 OR DUP5 SSTORE PUSH1 0x40 MLOAD SWAP2 SWAP1 SWAP3 AND SWAP3 DUP4 SWAP2 PUSH32 0x8BE0079C531659141344CD1FD0A4F28419497F9722A3DAAFE3B4186F6B6457E0 SWAP2 SWAP1 LOG3 POP POP JUMP JUMPDEST PUSH1 0x0 PUSH1 0x20 DUP3 DUP5 SUB SLT ISZERO PUSH2 0xC1 JUMPI PUSH1 0x0 DUP1 REVERT JUMPDEST DUP2 MLOAD PUSH1 0x1 PUSH1 0x1 PUSH1 0xA0 SHL SUB DUP2 AND DUP2 EQ PUSH2 0xD8 JUMPI PUSH1 0x0 DUP1 REVERT JUMPDEST SWAP4 SWAP3 POP POP POP JUMP JUMPDEST PUSH2 0x1A92 DUP1 PUSH3 0xEF PUSH1 0x0 CODECOPY PUSH1 0x0 RETURN INVALID PUSH1 0x80 PUSH1 0x40 MSTORE CALLVALUE DUP1 ISZERO PUSH2 0x10 JUMPI PUSH1 0x0 DUP1 REVERT JUMPDEST POP PUSH1 0x4 CALLDATASIZE LT PUSH2 0x10B JUMPI PUSH1 0x0 CALLDATALOAD PUSH1 0xE0 SHR DUP1 PUSH4 0xB402F1F5 GT PUSH2 0xA2 JUMPI DUP1 PUSH4 0xEC979082 GT PUSH2 0x71 JUMPI DUP1 PUSH4 0xEC979082 EQ PUSH2 0x246 JUMPI DUP1 PUSH4 0xF0C68C1E EQ PUSH2 0x24F JUMPI DUP1 PUSH4 0xF2E55021 EQ PUSH2 0x262 JUMPI DUP1 PUSH4 0xF2FDE38B EQ PUSH2 0x2A4 JUMPI DUP1 PUSH4 0xF6C9EDA0 EQ PUSH2 0x2B7 JUMPI PUSH1 0x0 DUP1 REVERT JUMPDEST DUP1 PUSH4 0xB402F1F5 EQ PUSH2 0x1F1 JUMPI DUP1 PUSH4 0xCB1C2B5C EQ PUSH2 0x211 JUMPI DUP1 PUSH4 0xD5BEA1E4 EQ PUSH2 0x220 JUMPI DUP1 PUSH4 0xE14EC959 EQ PUSH2 0x233 JUMPI PUSH1 0x0 DUP1 REVERT JUMPDEST DUP1 PUSH4 0x715018A6 GT PUSH2 0xDE JUMPI DUP1 PUSH4 0x715018A6 EQ PUSH2 0x17B JUMPI DUP1 PUSH4 0x8DA5CB5B EQ PUSH2 0x183 JUMPI DUP1 PUSH4 0xA4E47B66 EQ PUSH2 0x194 JUMPI DUP1 PUSH4 0xB1283E77 EQ PUSH2 0x1CD JUMPI PUSH1 0x0 DUP1 REVERT JUMPDEST DUP1 PUSH4 0xBEA440D EQ PUSH2 0x110 JUMPI DUP1 PUSH4 0x43425E88 EQ PUSH2 0x125 JUMPI DUP1 PUSH4 0x4E3978B3 EQ PUSH2 0x155 JUMPI DUP1 PUSH4 0x60557333 EQ PUSH2 0x168 JUMPI JUMPDEST PUSH1 0x0 DUP1 REVERT JUMPDEST PUSH2 0x123 PUSH2 0x11E CALLDATASIZE PUSH1 0x4 PUSH2 0x1634 JUMP JUMPDEST PUSH2 0x2C5 JUMP JUMPDEST STOP JUMPDEST PUSH1 0x1 SLOAD PUSH2 0x138 SWAP1 PUSH1 0x1 PUSH1 0x1 PUSH1 0xA0 SHL SUB AND DUP2 JUMP JUMPDEST PUSH1 0x40 MLOAD PUSH1 0x1 PUSH1 0x1 PUSH1 0xA0 SHL SUB SWAP1 SWAP2 AND DUP2 MSTORE PUSH1 0x20 ADD JUMPDEST PUSH1 0x40 MLOAD DUP1 SWAP2 SUB SWAP1 RETURN JUMPDEST PUSH2 0x123 PUSH2 0x163 CALLDATASIZE PUSH1 0x4 PUSH2 0x1679 JUMP JUMPDEST PUSH2 0x388 JUMP JUMPDEST PUSH2 0x123 PUSH2 0x176 CALLDATASIZE PUSH1 0x4 PUSH2 0x1657 JUMP JUMPDEST PUSH2 0x6F8 JUMP JUMPDEST PUSH2 0x123 PUSH2 0x880 JUMP JUMPDEST PUSH1 0x0 SLOAD PUSH1 0x1 PUSH1 0x1 PUSH1 0xA0 SHL SUB AND PUSH2 0x138 JUMP JUMPDEST PUSH2 0x1BF PUSH2 0x1A2 CALLDATASIZE PUSH1 0x4 PUSH2 0x14C0 JUMP JUMPDEST PUSH1 0x5 PUSH1 0x20 SWAP1 DUP2 MSTORE PUSH1 0x0 SWAP3 DUP4 MSTORE PUSH1 0x40 DUP1 DUP5 KECCAK256 SWAP1 SWAP2 MSTORE SWAP1 DUP3 MSTORE SWAP1 KECCAK256 SLOAD DUP2 JUMP JUMPDEST PUSH1 0x40 MLOAD SWAP1 DUP2 MSTORE PUSH1 0x20 ADD PUSH2 0x14C JUMP JUMPDEST PUSH2 0x1E0 PUSH2 0x1DB CALLDATASIZE PUSH1 0x4 PUSH2 0x161B JUMP JUMPDEST PUSH2 0x894 JUMP JUMPDEST PUSH1 0x40 MLOAD PUSH2 0x14C SWAP6 SWAP5 SWAP4 SWAP3 SWAP2 SWAP1 PUSH2 0x175D JUMP JUMPDEST PUSH2 0x204 PUSH2 0x1FF CALLDATASIZE PUSH1 0x4 PUSH2 0x1657 JUMP JUMPDEST PUSH2 0x958 JUMP JUMPDEST PUSH1 0x40 MLOAD PUSH2 0x14C SWAP2 SWAP1 PUSH2 0x174A JUMP JUMPDEST PUSH2 0x1BF PUSH8 0xDE0B6B3A7640000 DUP2 JUMP JUMPDEST PUSH2 0x123 PUSH2 0x22E CALLDATASIZE PUSH1 0x4 PUSH2 0x16AD JUMP JUMPDEST PUSH2 0xA11 JUMP JUMPDEST PUSH2 0x123 PUSH2 0x241 CALLDATASIZE PUSH1 0x4 PUSH2 0x1515 JUMP JUMPDEST PUSH2 0xCF7 JUMP JUMPDEST PUSH2 0x1BF PUSH1 0x6 SLOAD DUP2 JUMP JUMPDEST PUSH2 0x1BF PUSH2 0x25D CALLDATASIZE PUSH1 0x4 PUSH2 0x161B JUMP JUMPDEST PUSH2 0xEED JUMP JUMPDEST PUSH2 0x275 PUSH2 0x270 CALLDATASIZE PUSH1 0x4 PUSH2 0x1657 JUMP JUMPDEST PUSH2 0xF2F JUMP JUMPDEST PUSH1 0x40 DUP1 MLOAD PUSH1 0x1 PUSH1 0x1 PUSH1 0xA0 SHL SUB SWAP6 DUP7 AND DUP2 MSTORE PUSH1 0x20 DUP2 ADD SWAP5 SWAP1 SWAP5 MSTORE DUP4 ADD SWAP2 SWAP1 SWAP2 MSTORE SWAP1 SWAP2 AND PUSH1 0x60 DUP3 ADD MSTORE PUSH1 0x80 ADD PUSH2 0x14C JUMP JUMPDEST PUSH2 0x123 PUSH2 0x2B2 CALLDATASIZE PUSH1 0x4 PUSH2 0x149E JUMP JUMPDEST PUSH2 0xF81 JUMP JUMPDEST PUSH2 0x1BF PUSH7 0x2386F26FC10000 DUP2 JUMP JUMPDEST PUSH1 0x40 MLOAD PUSH4 0x23B872DD PUSH1 0xE0 SHL DUP2 MSTORE CALLER PUSH1 0x4 DUP3 ADD MSTORE ADDRESS PUSH1 0x24 DUP3 ADD MSTORE PUSH1 0x44 DUP2 ADD DUP4 SWAP1 MSTORE PUSH1 0x1 PUSH1 0x1 PUSH1 0xA0 SHL SUB DUP3 AND SWAP1 PUSH4 0x23B872DD SWAP1 PUSH1 0x64 ADD PUSH1 0x20 PUSH1 0x40 MLOAD DUP1 DUP4 SUB DUP2 PUSH1 0x0 DUP8 DUP1 EXTCODESIZE ISZERO DUP1 ISZERO PUSH2 0x313 JUMPI PUSH1 0x0 DUP1 REVERT JUMPDEST POP GAS CALL ISZERO DUP1 ISZERO PUSH2 0x327 JUMPI RETURNDATASIZE PUSH1 0x0 DUP1 RETURNDATACOPY RETURNDATASIZE PUSH1 0x0 REVERT JUMPDEST POP POP POP POP PUSH1 0x40 MLOAD RETURNDATASIZE PUSH1 0x1F NOT PUSH1 0x1F DUP3 ADD AND DUP3 ADD DUP1 PUSH1 0x40 MSTORE POP DUP2 ADD SWAP1 PUSH2 0x34B SWAP2 SWAP1 PUSH2 0x14F3 JUMP JUMPDEST POP CALLER PUSH1 0x0 SWAP1 DUP2 MSTORE PUSH1 0x5 PUSH1 0x20 SWAP1 DUP2 MSTORE PUSH1 0x40 DUP1 DUP4 KECCAK256 PUSH1 0x1 PUSH1 0x1 PUSH1 0xA0 SHL SUB DUP6 AND DUP5 MSTORE SWAP1 SWAP2 MSTORE DUP2 KECCAK256 DUP1 SLOAD DUP5 SWAP3 SWAP1 PUSH2 0x37F SWAP1 DUP5 SWAP1 PUSH2 0x1954 JUMP JUMPDEST SWAP1 SWAP2 SSTORE POP POP POP POP JUMP JUMPDEST PUSH1 0x0 DUP5 GT DUP1 ISZERO PUSH2 0x39A JUMPI POP PUSH1 0x6 SLOAD DUP5 GT ISZERO JUMPDEST PUSH2 0x3BF JUMPI PUSH1 0x40 MLOAD PUSH3 0x461BCD PUSH1 0xE5 SHL DUP2 MSTORE PUSH1 0x4 ADD PUSH2 0x3B6 SWAP1 PUSH2 0x179D JUMP JUMPDEST PUSH1 0x40 MLOAD DUP1 SWAP2 SUB SWAP1 REVERT JUMPDEST PUSH1 0x0 DUP3 GT PUSH2 0x3DF JUMPI PUSH1 0x40 MLOAD PUSH3 0x461BCD PUSH1 0xE5 SHL DUP2 MSTORE PUSH1 0x4 ADD PUSH2 0x3B6 SWAP1 PUSH2 0x184F JUMP JUMPDEST PUSH1 0x0 DUP5 DUP2 MSTORE PUSH1 0x2 PUSH1 0x20 DUP2 SWAP1 MSTORE PUSH1 0x40 SWAP1 SWAP2 KECCAK256 ADD SLOAD TIMESTAMP LT PUSH2 0x43B JUMPI PUSH1 0x40 MLOAD PUSH3 0x461BCD PUSH1 0xE5 SHL DUP2 MSTORE PUSH1 0x20 PUSH1 0x4 DUP3 ADD MSTORE PUSH1 0x18 PUSH1 0x24 DUP3 ADD MSTORE PUSH24 0x10995D1D1A5B99C81C195C9A5BD9081A185CC8195B991959 PUSH1 0x42 SHL PUSH1 0x44 DUP3 ADD MSTORE PUSH1 0x64 ADD PUSH2 0x3B6 JUMP JUMPDEST PUSH1 0x0 DUP5 DUP2 MSTORE PUSH1 0x2 PUSH1 0x20 MSTORE PUSH1 0x40 SWAP1 KECCAK256 PUSH1 0x3 ADD SLOAD PUSH1 0xFF AND ISZERO PUSH2 0x46D JUMPI PUSH1 0x40 MLOAD PUSH3 0x461BCD PUSH1 0xE5 SHL DUP2 MSTORE PUSH1 0x4 ADD PUSH2 0x3B6 SWAP1 PUSH2 0x17C8 JUMP JUMPDEST PUSH1 0x0 DUP5 DUP2 MSTORE PUSH1 0x3 PUSH1 0x20 MSTORE PUSH1 0x40 SWAP1 KECCAK256 SLOAD DUP4 LT PUSH2 0x4C2 JUMPI PUSH1 0x40 MLOAD PUSH3 0x461BCD PUSH1 0xE5 SHL DUP2 MSTORE PUSH1 0x20 PUSH1 0x4 DUP3 ADD MSTORE PUSH1 0x15 PUSH1 0x24 DUP3 ADD MSTORE PUSH21 0x92DCECC2D8D2C840DEEAE8C6DEDACA40D2DCC8CAF PUSH1 0x5B SHL PUSH1 0x44 DUP3 ADD MSTORE PUSH1 0x64 ADD PUSH2 0x3B6 JUMP JUMPDEST PUSH1 0x0 DUP5 DUP2 MSTORE PUSH1 0x2 PUSH1 0x20 MSTORE PUSH1 0x40 SWAP1 KECCAK256 PUSH1 0x5 ADD SLOAD PUSH1 0x1 PUSH1 0x1 PUSH1 0xA0 SHL SUB DUP3 DUP2 AND SWAP2 AND EQ PUSH2 0x52E JUMPI PUSH1 0x40 MLOAD PUSH3 0x461BCD PUSH1 0xE5 SHL DUP2 MSTORE PUSH1 0x20 PUSH1 0x4 DUP3 ADD MSTORE PUSH1 0x1D PUSH1 0x24 DUP3 ADD MSTORE PUSH32 0x496E76616C696420746F6B656E20666F722074686973206D61726B6574000000 PUSH1 0x44 DUP3 ADD MSTORE PUSH1 0x64 ADD PUSH2 0x3B6 JUMP JUMPDEST CALLER PUSH1 0x0 SWAP1 DUP2 MSTORE PUSH1 0x5 PUSH1 0x20 SWAP1 DUP2 MSTORE PUSH1 0x40 DUP1 DUP4 KECCAK256 PUSH1 0x1 PUSH1 0x1 PUSH1 0xA0 SHL SUB DUP6 AND DUP5 MSTORE SWAP1 SWAP2 MSTORE SWAP1 KECCAK256 SLOAD PUSH8 0xDE0B6B3A7640000 GT ISZERO PUSH2 0x579 JUMPI PUSH1 0x40 MLOAD PUSH3 0x461BCD PUSH1 0xE5 SHL DUP2 MSTORE PUSH1 0x4 ADD PUSH2 0x3B6 SWAP1 PUSH2 0x17FF JUMP JUMPDEST PUSH1 0x0 PUSH2 0x58C PUSH7 0x2386F26FC10000 DUP5 PUSH2 0x1954 JUMP JUMPDEST PUSH1 0x40 MLOAD PUSH4 0x23B872DD PUSH1 0xE0 SHL DUP2 MSTORE CALLER PUSH1 0x4 DUP3 ADD MSTORE ADDRESS PUSH1 0x24 DUP3 ADD MSTORE PUSH1 0x44 DUP2 ADD DUP3 SWAP1 MSTORE SWAP1 SWAP2 POP PUSH1 0x1 PUSH1 0x1 PUSH1 0xA0 SHL SUB DUP4 AND SWAP1 PUSH4 0x23B872DD SWAP1 PUSH1 0x64 ADD PUSH1 0x20 PUSH1 0x40 MLOAD DUP1 DUP4 SUB DUP2 PUSH1 0x0 DUP8 DUP1 EXTCODESIZE ISZERO DUP1 ISZERO PUSH2 0x5DD JUMPI PUSH1 0x0 DUP1 REVERT JUMPDEST POP GAS CALL ISZERO DUP1 ISZERO PUSH2 0x5F1 JUMPI RETURNDATASIZE PUSH1 0x0 DUP1 RETURNDATACOPY RETURNDATASIZE PUSH1 0x0 REVERT JUMPDEST POP POP POP POP PUSH1 0x40 MLOAD RETURNDATASIZE PUSH1 0x1F NOT PUSH1 0x1F DUP3 ADD AND DUP3 ADD DUP1 PUSH1 0x40 MSTORE POP DUP2 ADD SWAP1 PUSH2 0x615 SWAP2 SWAP1 PUSH2 0x14F3 JUMP JUMPDEST POP PUSH1 0x0 DUP6 DUP2 MSTORE PUSH1 0x4 PUSH1 0x20 DUP2 DUP2 MSTORE PUSH1 0x40 DUP1 DUP5 KECCAK256 DUP2 MLOAD PUSH1 0x80 DUP1 DUP3 ADD DUP5 MSTORE CALLER DUP1 DUP4 MSTORE DUP3 DUP7 ADD DUP12 DUP2 MSTORE DUP4 DUP7 ADD DUP14 DUP2 MSTORE PUSH1 0x1 PUSH1 0x1 PUSH1 0xA0 SHL SUB DUP13 DUP2 AND PUSH1 0x60 DUP1 DUP9 ADD DUP3 DUP2 MSTORE DUP10 SLOAD PUSH1 0x1 DUP1 DUP3 ADD DUP13 SSTORE SWAP11 DUP16 MSTORE SWAP14 DUP13 SWAP1 KECCAK256 SWAP9 MLOAD SWAP14 SWAP1 SWAP13 MUL SWAP1 SWAP8 ADD DUP1 SLOAD PUSH1 0x1 PUSH1 0x1 PUSH1 0xA0 SHL SUB NOT SWAP1 DUP2 AND SWAP14 DUP5 AND SWAP14 SWAP1 SWAP14 OR DUP2 SSTORE SWAP4 MLOAD SWAP8 DUP5 ADD SWAP8 SWAP1 SWAP8 SSTORE SWAP1 MLOAD PUSH1 0x2 DUP4 ADD SSTORE SWAP8 MLOAD PUSH1 0x3 SWAP1 SWAP2 ADD DUP1 SLOAD SWAP1 SWAP10 AND SWAP8 AND SWAP7 SWAP1 SWAP7 OR SWAP1 SWAP7 SSTORE DUP3 MLOAD DUP12 DUP2 MSTORE SWAP4 DUP5 ADD SWAP5 SWAP1 SWAP5 MSTORE SWAP1 DUP3 ADD DUP8 SWAP1 MSTORE SWAP2 DUP2 ADD DUP8 SWAP1 MSTORE SWAP2 DUP3 ADD MSTORE PUSH32 0xC8BCDBA2D7EAB17E989C0F1127E932C79E9D78A8420F1BE088BE84BE6D76FE8 SWAP1 PUSH1 0xA0 ADD PUSH1 0x40 MLOAD DUP1 SWAP2 SUB SWAP1 LOG1 POP POP POP POP POP JUMP JUMPDEST PUSH2 0x700 PUSH2 0xFFA JUMP JUMPDEST PUSH1 0x0 DUP3 GT DUP1 ISZERO PUSH2 0x712 JUMPI POP PUSH1 0x6 SLOAD DUP3 GT ISZERO JUMPDEST PUSH2 0x72E JUMPI PUSH1 0x40 MLOAD PUSH3 0x461BCD PUSH1 0xE5 SHL DUP2 MSTORE PUSH1 0x4 ADD PUSH2 0x3B6 SWAP1 PUSH2 0x179D JUMP JUMPDEST PUSH1 0x0 DUP3 DUP2 MSTORE PUSH1 0x2 PUSH1 0x20 DUP2 SWAP1 MSTORE PUSH1 0x40 SWAP1 SWAP2 KECCAK256 ADD SLOAD TIMESTAMP LT ISZERO PUSH2 0x787 JUMPI PUSH1 0x40 MLOAD PUSH3 0x461BCD PUSH1 0xE5 SHL DUP2 MSTORE PUSH1 0x20 PUSH1 0x4 DUP3 ADD MSTORE PUSH1 0x14 PUSH1 0x24 DUP3 ADD MSTORE PUSH20 0x546F6F206561726C7920746F207265736F6C7665 PUSH1 0x60 SHL PUSH1 0x44 DUP3 ADD MSTORE PUSH1 0x64 ADD PUSH2 0x3B6 JUMP JUMPDEST PUSH1 0x0 DUP3 DUP2 MSTORE PUSH1 0x2 PUSH1 0x20 MSTORE PUSH1 0x40 SWAP1 KECCAK256 PUSH1 0x3 ADD SLOAD PUSH1 0xFF AND ISZERO PUSH2 0x7B9 JUMPI PUSH1 0x40 MLOAD PUSH3 0x461BCD PUSH1 0xE5 SHL DUP2 MSTORE PUSH1 0x4 ADD PUSH2 0x3B6 SWAP1 PUSH2 0x17C8 JUMP JUMPDEST PUSH1 0x0 DUP3 DUP2 MSTORE PUSH1 0x3 PUSH1 0x20 MSTORE PUSH1 0x40 SWAP1 KECCAK256 SLOAD DUP2 LT PUSH2 0x816 JUMPI PUSH1 0x40 MLOAD PUSH3 0x461BCD PUSH1 0xE5 SHL DUP2 MSTORE PUSH1 0x20 PUSH1 0x4 DUP3 ADD MSTORE PUSH1 0x17 PUSH1 0x24 DUP3 ADD MSTORE PUSH32 0x496E76616C69642077696E6E696E67206F7574636F6D65000000000000000000 PUSH1 0x44 DUP3 ADD MSTORE PUSH1 0x64 ADD PUSH2 0x3B6 JUMP JUMPDEST PUSH1 0x0 DUP3 DUP2 MSTORE PUSH1 0x2 PUSH1 0x20 MSTORE PUSH1 0x40 SWAP1 KECCAK256 PUSH1 0x3 DUP2 ADD DUP1 SLOAD PUSH1 0xFF NOT AND PUSH1 0x1 OR SWAP1 SSTORE PUSH1 0x4 ADD DUP2 SWAP1 SSTORE PUSH2 0x843 DUP3 DUP3 PUSH2 0x1054 JUMP JUMPDEST PUSH1 0x40 DUP1 MLOAD DUP4 DUP2 MSTORE PUSH1 0x20 DUP2 ADD DUP4 SWAP1 MSTORE PUSH32 0x6DFC24F0F2FB42E49FB4FA3FFA8ABB148CAB908A1FB8335B3F128A08B2594AF1 SWAP2 ADD PUSH1 0x40 MLOAD DUP1 SWAP2 SUB SWAP1 LOG1 POP POP JUMP JUMPDEST PUSH2 0x888 PUSH2 0xFFA JUMP JUMPDEST PUSH2 0x892 PUSH1 0x0 PUSH2 0x1279 JUMP JUMPDEST JUMP JUMPDEST PUSH1 0x2 PUSH1 0x20 MSTORE PUSH1 0x0 SWAP1 DUP2 MSTORE PUSH1 0x40 SWAP1 KECCAK256 DUP1 SLOAD DUP2 SWAP1 PUSH2 0x8AF SWAP1 PUSH2 0x19C4 JUMP JUMPDEST DUP1 PUSH1 0x1F ADD PUSH1 0x20 DUP1 SWAP2 DIV MUL PUSH1 0x20 ADD PUSH1 0x40 MLOAD SWAP1 DUP2 ADD PUSH1 0x40 MSTORE DUP1 SWAP3 SWAP2 SWAP1 DUP2 DUP2 MSTORE PUSH1 0x20 ADD DUP3 DUP1 SLOAD PUSH2 0x8DB SWAP1 PUSH2 0x19C4 JUMP JUMPDEST DUP1 ISZERO PUSH2 0x928 JUMPI DUP1 PUSH1 0x1F LT PUSH2 0x8FD JUMPI PUSH2 0x100 DUP1 DUP4 SLOAD DIV MUL DUP4 MSTORE SWAP2 PUSH1 0x20 ADD SWAP2 PUSH2 0x928 JUMP JUMPDEST DUP3 ADD SWAP2 SWAP1 PUSH1 0x0 MSTORE PUSH1 0x20 PUSH1 0x0 KECCAK256 SWAP1 JUMPDEST DUP2 SLOAD DUP2 MSTORE SWAP1 PUSH1 0x1 ADD SWAP1 PUSH1 0x20 ADD DUP1 DUP4 GT PUSH2 0x90B JUMPI DUP3 SWAP1 SUB PUSH1 0x1F AND DUP3 ADD SWAP2 JUMPDEST POP POP POP POP PUSH1 0x2 DUP4 ADD SLOAD PUSH1 0x3 DUP5 ADD SLOAD PUSH1 0x4 DUP6 ADD SLOAD PUSH1 0x5 SWAP1 SWAP6 ADD SLOAD SWAP4 SWAP5 SWAP2 SWAP4 PUSH1 0xFF SWAP1 SWAP2 AND SWAP3 POP PUSH1 0x1 PUSH1 0x1 PUSH1 0xA0 SHL SUB AND DUP6 JUMP JUMPDEST PUSH1 0x3 PUSH1 0x20 MSTORE DUP2 PUSH1 0x0 MSTORE PUSH1 0x40 PUSH1 0x0 KECCAK256 DUP2 DUP2 SLOAD DUP2 LT PUSH2 0x974 JUMPI PUSH1 0x0 DUP1 REVERT JUMPDEST SWAP1 PUSH1 0x0 MSTORE PUSH1 0x20 PUSH1 0x0 KECCAK256 ADD PUSH1 0x0 SWAP2 POP SWAP2 POP POP DUP1 SLOAD PUSH2 0x990 SWAP1 PUSH2 0x19C4 JUMP JUMPDEST DUP1 PUSH1 0x1F ADD PUSH1 0x20 DUP1 SWAP2 DIV MUL PUSH1 0x20 ADD PUSH1 0x40 MLOAD SWAP1 DUP2 ADD PUSH1 0x40 MSTORE DUP1 SWAP3 SWAP2 SWAP1 DUP2 DUP2 MSTORE PUSH1 0x20 ADD DUP3 DUP1 SLOAD PUSH2 0x9BC SWAP1 PUSH2 0x19C4 JUMP JUMPDEST DUP1 ISZERO PUSH2 0xA09 JUMPI DUP1 PUSH1 0x1F LT PUSH2 0x9DE JUMPI PUSH2 0x100 DUP1 DUP4 SLOAD DIV MUL DUP4 MSTORE SWAP2 PUSH1 0x20 ADD SWAP2 PUSH2 0xA09 JUMP JUMPDEST DUP3 ADD SWAP2 SWAP1 PUSH1 0x0 MSTORE PUSH1 0x20 PUSH1 0x0 KECCAK256 SWAP1 JUMPDEST DUP2 SLOAD DUP2 MSTORE SWAP1 PUSH1 0x1 ADD SWAP1 PUSH1 0x20 ADD DUP1 DUP4 GT PUSH2 0x9EC JUMPI DUP3 SWAP1 SUB PUSH1 0x1F AND DUP3 ADD SWAP2 JUMPDEST POP POP POP POP POP DUP2 JUMP JUMPDEST PUSH1 0x0 DUP6 GT DUP1 ISZERO PUSH2 0xA23 JUMPI POP PUSH1 0x6 SLOAD DUP6 GT ISZERO JUMPDEST PUSH2 0xA3F JUMPI PUSH1 0x40 MLOAD PUSH3 0x461BCD PUSH1 0xE5 SHL DUP2 MSTORE PUSH1 0x4 ADD PUSH2 0x3B6 SWAP1 PUSH2 0x179D JUMP JUMPDEST PUSH1 0x0 DUP5 GT PUSH2 0xA5F JUMPI PUSH1 0x40 MLOAD PUSH3 0x461BCD PUSH1 0xE5 SHL DUP2 MSTORE PUSH1 0x4 ADD PUSH2 0x3B6 SWAP1 PUSH2 0x184F JUMP JUMPDEST PUSH1 0x0 DUP6 DUP2 MSTORE PUSH1 0x2 PUSH1 0x20 DUP2 SWAP1 MSTORE PUSH1 0x40 SWAP1 SWAP2 KECCAK256 ADD SLOAD TIMESTAMP LT PUSH2 0xABB JUMPI PUSH1 0x40 MLOAD PUSH3 0x461BCD PUSH1 0xE5 SHL DUP2 MSTORE PUSH1 0x20 PUSH1 0x4 DUP3 ADD MSTORE PUSH1 0x18 PUSH1 0x24 DUP3 ADD MSTORE PUSH24 0x10995D1D1A5B99C81C195C9A5BD9081A185CC8195B991959 PUSH1 0x42 SHL PUSH1 0x44 DUP3 ADD MSTORE PUSH1 0x64 ADD PUSH2 0x3B6 JUMP JUMPDEST PUSH1 0x0 DUP6 DUP2 MSTORE PUSH1 0x2 PUSH1 0x20 MSTORE PUSH1 0x40 SWAP1 KECCAK256 PUSH1 0x3 ADD SLOAD PUSH1 0xFF AND ISZERO PUSH2 0xAED JUMPI PUSH1 0x40 MLOAD PUSH3 0x461BCD PUSH1 0xE5 SHL DUP2 MSTORE PUSH1 0x4 ADD PUSH2 0x3B6 SWAP1 PUSH2 0x17C8 JUMP JUMPDEST PUSH1 0x0 DUP6 DUP2 MSTORE PUSH1 0x3 PUSH1 0x20 MSTORE PUSH1 0x40 SWAP1 KECCAK256 SLOAD DUP4 LT PUSH2 0xB42 JUMPI PUSH1 0x40 MLOAD PUSH3 0x461BCD PUSH1 0xE5 SHL DUP2 MSTORE PUSH1 0x20 PUSH1 0x4 DUP3 ADD MSTORE PUSH1 0x15 PUSH1 0x24 DUP3 ADD MSTORE PUSH21 0x92DCECC2D8D2C840DEEAE8C6DEDACA40D2DCC8CAF PUSH1 0x5B SHL PUSH1 0x44 DUP3 ADD MSTORE PUSH1 0x64 ADD PUSH2 0x3B6 JUMP JUMPDEST PUSH1 0x0 DUP6 DUP2 MSTORE PUSH1 0x2 PUSH1 0x20 MSTORE PUSH1 0x40 SWAP1 KECCAK256 PUSH1 0x5 ADD SLOAD PUSH1 0x1 PUSH1 0x1 PUSH1 0xA0 SHL SUB DUP3 DUP2 AND SWAP2 AND EQ PUSH2 0xBAE JUMPI PUSH1 0x40 MLOAD PUSH3 0x461BCD PUSH1 0xE5 SHL DUP2 MSTORE PUSH1 0x20 PUSH1 0x4 DUP3 ADD MSTORE PUSH1 0x1D PUSH1 0x24 DUP3 ADD MSTORE PUSH32 0x496E76616C696420746F6B656E20666F722074686973206D61726B6574000000 PUSH1 0x44 DUP3 ADD MSTORE PUSH1 0x64 ADD PUSH2 0x3B6 JUMP JUMPDEST PUSH1 0x1 PUSH1 0x1 PUSH1 0xA0 SHL SUB DUP1 DUP4 AND PUSH1 0x0 SWAP1 DUP2 MSTORE PUSH1 0x5 PUSH1 0x20 SWAP1 DUP2 MSTORE PUSH1 0x40 DUP1 DUP4 KECCAK256 SWAP4 DUP6 AND DUP4 MSTORE SWAP3 SWAP1 MSTORE KECCAK256 SLOAD PUSH8 0xDE0B6B3A7640000 GT ISZERO PUSH2 0xBFB JUMPI PUSH1 0x40 MLOAD PUSH3 0x461BCD PUSH1 0xE5 SHL DUP2 MSTORE PUSH1 0x4 ADD PUSH2 0x3B6 SWAP1 PUSH2 0x17FF JUMP JUMPDEST PUSH1 0x0 PUSH2 0xC0E PUSH7 0x2386F26FC10000 DUP7 PUSH2 0x19AD JUMP JUMPDEST PUSH1 0x0 DUP8 DUP2 MSTORE PUSH1 0x4 PUSH1 0x20 DUP2 DUP2 MSTORE PUSH1 0x40 DUP1 DUP5 KECCAK256 DUP2 MLOAD PUSH1 0x80 DUP1 DUP3 ADD DUP5 MSTORE PUSH1 0x1 PUSH1 0x1 PUSH1 0xA0 SHL SUB DUP12 DUP2 AND DUP1 DUP5 MSTORE DUP4 DUP8 ADD DUP11 DUP2 MSTORE DUP5 DUP8 ADD DUP16 DUP2 MSTORE DUP14 DUP5 AND PUSH1 0x60 DUP1 DUP9 ADD DUP3 DUP2 MSTORE DUP10 SLOAD PUSH1 0x1 DUP1 DUP3 ADD DUP13 SSTORE SWAP11 DUP16 MSTORE SWAP14 DUP13 SWAP1 KECCAK256 SWAP9 MLOAD SWAP14 SWAP1 SWAP13 MUL SWAP1 SWAP8 ADD DUP1 SLOAD PUSH1 0x1 PUSH1 0x1 PUSH1 0xA0 SHL SUB NOT SWAP1 DUP2 AND SWAP14 DUP8 AND SWAP14 SWAP1 SWAP14 OR DUP2 SSTORE SWAP3 MLOAD SWAP8 DUP4 ADD SWAP8 SWAP1 SWAP8 SSTORE MLOAD PUSH1 0x2 DUP3 ADD SSTORE SWAP8 MLOAD PUSH1 0x3 SWAP1 SWAP9 ADD DUP1 SLOAD SWAP1 SWAP10 AND SWAP8 SWAP1 SWAP2 AND SWAP7 SWAP1 SWAP7 OR SWAP1 SWAP7 SSTORE DUP3 MLOAD DUP14 DUP2 MSTORE SWAP4 DUP5 ADD SWAP5 SWAP1 SWAP5 MSTORE SWAP1 DUP3 ADD DUP6 SWAP1 MSTORE SWAP2 DUP2 ADD DUP9 SWAP1 MSTORE SWAP2 DUP3 ADD MSTORE SWAP1 SWAP2 POP PUSH32 0xC8BCDBA2D7EAB17E989C0F1127E932C79E9D78A8420F1BE088BE84BE6D76FE8 SWAP1 PUSH1 0xA0 ADD PUSH1 0x40 MLOAD DUP1 SWAP2 SUB SWAP1 LOG1 POP POP POP POP POP POP JUMP JUMPDEST TIMESTAMP DUP3 GT PUSH2 0xD54 JUMPI PUSH1 0x40 MLOAD PUSH3 0x461BCD PUSH1 0xE5 SHL DUP2 MSTORE PUSH1 0x20 PUSH1 0x4 DUP3 ADD MSTORE PUSH1 0x25 PUSH1 0x24 DUP3 ADD MSTORE PUSH32 0x5265736F6C7574696F6E2074696D65206D75737420626520696E207468652066 PUSH1 0x44 DUP3 ADD MSTORE PUSH5 0x7574757265 PUSH1 0xD8 SHL PUSH1 0x64 DUP3 ADD MSTORE PUSH1 0x84 ADD PUSH2 0x3B6 JUMP JUMPDEST PUSH1 0x2 DUP4 MLOAD LT ISZERO PUSH2 0xDA6 JUMPI PUSH1 0x40 MLOAD PUSH3 0x461BCD PUSH1 0xE5 SHL DUP2 MSTORE PUSH1 0x20 PUSH1 0x4 DUP3 ADD MSTORE PUSH1 0x1E PUSH1 0x24 DUP3 ADD MSTORE PUSH32 0x4174206C656173742074776F206F7574636F6D65732072657175697265640000 PUSH1 0x44 DUP3 ADD MSTORE PUSH1 0x64 ADD PUSH2 0x3B6 JUMP JUMPDEST PUSH1 0x6 DUP1 SLOAD SWAP1 PUSH1 0x0 PUSH2 0xDB6 DUP4 PUSH2 0x19FF JUMP JUMPDEST SWAP1 SWAP2 SSTORE POP POP PUSH1 0x40 DUP1 MLOAD PUSH1 0xC0 DUP2 ADD DUP3 MSTORE DUP6 DUP2 MSTORE PUSH1 0x20 DUP1 DUP3 ADD DUP7 SWAP1 MSTORE DUP2 DUP4 ADD DUP6 SWAP1 MSTORE PUSH1 0x0 PUSH1 0x60 DUP4 ADD DUP2 SWAP1 MSTORE PUSH1 0x80 DUP4 ADD DUP2 SWAP1 MSTORE PUSH1 0x1 PUSH1 0x1 PUSH1 0xA0 SHL SUB DUP6 AND PUSH1 0xA0 DUP5 ADD MSTORE PUSH1 0x6 SLOAD DUP2 MSTORE PUSH1 0x2 DUP3 MSTORE SWAP3 SWAP1 SWAP3 KECCAK256 DUP2 MLOAD DUP1 MLOAD SWAP3 SWAP4 SWAP2 SWAP3 PUSH2 0xE17 SWAP3 DUP5 SWAP3 ADD SWAP1 PUSH2 0x12C9 JUMP JUMPDEST POP PUSH1 0x20 DUP3 DUP2 ADD MLOAD DUP1 MLOAD PUSH2 0xE30 SWAP3 PUSH1 0x1 DUP6 ADD SWAP3 ADD SWAP1 PUSH2 0x134D JUMP JUMPDEST POP PUSH1 0x40 DUP3 DUP2 ADD MLOAD PUSH1 0x2 DUP4 ADD SSTORE PUSH1 0x60 DUP4 ADD MLOAD PUSH1 0x3 DUP1 DUP5 ADD DUP1 SLOAD PUSH1 0xFF NOT AND SWAP3 ISZERO ISZERO SWAP3 SWAP1 SWAP3 OR SWAP1 SWAP2 SSTORE PUSH1 0x80 DUP5 ADD MLOAD PUSH1 0x4 DUP5 ADD SSTORE PUSH1 0xA0 SWAP1 SWAP4 ADD MLOAD PUSH1 0x5 SWAP1 SWAP3 ADD DUP1 SLOAD PUSH1 0x1 PUSH1 0x1 PUSH1 0xA0 SHL SUB NOT AND PUSH1 0x1 PUSH1 0x1 PUSH1 0xA0 SHL SUB SWAP1 SWAP4 AND SWAP3 SWAP1 SWAP3 OR SWAP1 SWAP2 SSTORE PUSH1 0x6 SLOAD PUSH1 0x0 SWAP1 DUP2 MSTORE PUSH1 0x20 SWAP3 DUP4 MSTORE KECCAK256 DUP5 MLOAD PUSH2 0xEA5 SWAP3 DUP7 ADD SWAP1 PUSH2 0x134D JUMP JUMPDEST POP PUSH32 0xCDBDDD7CDB96B0CF3143B6A445A9FD5F49DB9ADB1C70BF7715F68FC69C2D7DC5 PUSH1 0x6 SLOAD DUP6 DUP6 DUP6 DUP6 PUSH1 0x40 MLOAD PUSH2 0xEDF SWAP6 SWAP5 SWAP4 SWAP3 SWAP2 SWAP1 PUSH2 0x1893 JUMP JUMPDEST PUSH1 0x40 MLOAD DUP1 SWAP2 SUB SWAP1 LOG1 POP POP POP POP JUMP JUMPDEST PUSH1 0x0 DUP1 DUP3 GT DUP1 ISZERO PUSH2 0xF00 JUMPI POP PUSH1 0x6 SLOAD DUP3 GT ISZERO JUMPDEST PUSH2 0xF1C JUMPI PUSH1 0x40 MLOAD PUSH3 0x461BCD PUSH1 0xE5 SHL DUP2 MSTORE PUSH1 0x4 ADD PUSH2 0x3B6 SWAP1 PUSH2 0x179D JUMP JUMPDEST POP PUSH1 0x0 SWAP1 DUP2 MSTORE PUSH1 0x3 PUSH1 0x20 MSTORE PUSH1 0x40 SWAP1 KECCAK256 SLOAD SWAP1 JUMP JUMPDEST PUSH1 0x4 PUSH1 0x20 MSTORE DUP2 PUSH1 0x0 MSTORE PUSH1 0x40 PUSH1 0x0 KECCAK256 DUP2 DUP2 SLOAD DUP2 LT PUSH2 0xF4B JUMPI PUSH1 0x0 DUP1 REVERT JUMPDEST PUSH1 0x0 SWAP2 DUP3 MSTORE PUSH1 0x20 SWAP1 SWAP2 KECCAK256 PUSH1 0x4 SWAP1 SWAP2 MUL ADD DUP1 SLOAD PUSH1 0x1 DUP3 ADD SLOAD PUSH1 0x2 DUP4 ADD SLOAD PUSH1 0x3 SWAP1 SWAP4 ADD SLOAD PUSH1 0x1 PUSH1 0x1 PUSH1 0xA0 SHL SUB SWAP3 DUP4 AND SWAP6 POP SWAP1 SWAP4 POP AND DUP5 JUMP JUMPDEST PUSH2 0xF89 PUSH2 0xFFA JUMP JUMPDEST PUSH1 0x1 PUSH1 0x1 PUSH1 0xA0 SHL SUB DUP2 AND PUSH2 0xFEE JUMPI PUSH1 0x40 MLOAD PUSH3 0x461BCD PUSH1 0xE5 SHL DUP2 MSTORE PUSH1 0x20 PUSH1 0x4 DUP3 ADD MSTORE PUSH1 0x26 PUSH1 0x24 DUP3 ADD MSTORE PUSH32 0x4F776E61626C653A206E6577206F776E657220697320746865207A65726F2061 PUSH1 0x44 DUP3 ADD MSTORE PUSH6 0x646472657373 PUSH1 0xD0 SHL PUSH1 0x64 DUP3 ADD MSTORE PUSH1 0x84 ADD PUSH2 0x3B6 JUMP JUMPDEST PUSH2 0xFF7 DUP2 PUSH2 0x1279 JUMP JUMPDEST POP JUMP JUMPDEST PUSH1 0x0 SLOAD PUSH1 0x1 PUSH1 0x1 PUSH1 0xA0 SHL SUB AND CALLER EQ PUSH2 0x892 JUMPI PUSH1 0x40 MLOAD PUSH3 0x461BCD PUSH1 0xE5 SHL DUP2 MSTORE PUSH1 0x20 PUSH1 0x4 DUP3 ADD DUP2 SWAP1 MSTORE PUSH1 0x24 DUP3 ADD MSTORE PUSH32 0x4F776E61626C653A2063616C6C6572206973206E6F7420746865206F776E6572 PUSH1 0x44 DUP3 ADD MSTORE PUSH1 0x64 ADD PUSH2 0x3B6 JUMP JUMPDEST PUSH1 0x0 DUP3 DUP2 MSTORE PUSH1 0x4 PUSH1 0x20 SWAP1 DUP2 MSTORE PUSH1 0x40 DUP1 DUP4 KECCAK256 PUSH1 0x2 SWAP1 SWAP3 MSTORE DUP3 KECCAK256 PUSH1 0x5 ADD SLOAD SWAP1 SWAP2 PUSH1 0x1 PUSH1 0x1 PUSH1 0xA0 SHL SUB SWAP1 SWAP2 AND SWAP1 DUP1 DUP1 JUMPDEST DUP5 SLOAD DUP2 LT ISZERO PUSH2 0x112A JUMPI DUP5 DUP2 DUP2 SLOAD DUP2 LT PUSH2 0x109C JUMPI PUSH2 0x109C PUSH2 0x1A30 JUMP JUMPDEST SWAP1 PUSH1 0x0 MSTORE PUSH1 0x20 PUSH1 0x0 KECCAK256 SWAP1 PUSH1 0x4 MUL ADD PUSH1 0x1 ADD SLOAD DUP4 PUSH2 0x10B9 SWAP2 SWAP1 PUSH2 0x1954 JUMP JUMPDEST SWAP3 POP DUP6 DUP6 DUP3 DUP2 SLOAD DUP2 LT PUSH2 0x10CE JUMPI PUSH2 0x10CE PUSH2 0x1A30 JUMP JUMPDEST SWAP1 PUSH1 0x0 MSTORE PUSH1 0x20 PUSH1 0x0 KECCAK256 SWAP1 PUSH1 0x4 MUL ADD PUSH1 0x2 ADD SLOAD EQ ISZERO PUSH2 0x1118 JUMPI DUP5 DUP2 DUP2 SLOAD DUP2 LT PUSH2 0x10F8 JUMPI PUSH2 0x10F8 PUSH2 0x1A30 JUMP JUMPDEST SWAP1 PUSH1 0x0 MSTORE PUSH1 0x20 PUSH1 0x0 KECCAK256 SWAP1 PUSH1 0x4 MUL ADD PUSH1 0x1 ADD SLOAD DUP3 PUSH2 0x1115 SWAP2 SWAP1 PUSH2 0x1954 JUMP JUMPDEST SWAP2 POP JUMPDEST DUP1 PUSH2 0x1122 DUP2 PUSH2 0x19FF JUMP JUMPDEST SWAP2 POP POP PUSH2 0x1081 JUMP JUMPDEST POP DUP1 ISZERO PUSH2 0x1271 JUMPI PUSH1 0x0 JUMPDEST DUP5 SLOAD DUP2 LT ISZERO PUSH2 0x126F JUMPI DUP6 DUP6 DUP3 DUP2 SLOAD DUP2 LT PUSH2 0x1150 JUMPI PUSH2 0x1150 PUSH2 0x1A30 JUMP JUMPDEST SWAP1 PUSH1 0x0 MSTORE PUSH1 0x20 PUSH1 0x0 KECCAK256 SWAP1 PUSH1 0x4 MUL ADD PUSH1 0x2 ADD SLOAD EQ ISZERO PUSH2 0x125D JUMPI PUSH1 0x0 DUP3 DUP5 DUP8 DUP5 DUP2 SLOAD DUP2 LT PUSH2 0x117E JUMPI PUSH2 0x117E PUSH2 0x1A30 JUMP JUMPDEST SWAP1 PUSH1 0x0 MSTORE PUSH1 0x20 PUSH1 0x0 KECCAK256 SWAP1 PUSH1 0x4 MUL ADD PUSH1 0x1 ADD SLOAD PUSH2 0x119A SWAP2 SWAP1 PUSH2 0x198E JUMP JUMPDEST PUSH2 0x11A4 SWAP2 SWAP1 PUSH2 0x196C JUMP JUMPDEST SWAP1 POP DUP5 PUSH1 0x1 PUSH1 0x1 PUSH1 0xA0 SHL SUB AND PUSH4 0xA9059CBB DUP8 DUP5 DUP2 SLOAD DUP2 LT PUSH2 0x11C7 JUMPI PUSH2 0x11C7 PUSH2 0x1A30 JUMP JUMPDEST PUSH1 0x0 SWAP2 DUP3 MSTORE PUSH1 0x20 SWAP1 SWAP2 KECCAK256 PUSH1 0x4 SWAP2 DUP3 MUL ADD SLOAD PUSH1 0x40 MLOAD PUSH1 0xE0 DUP5 SWAP1 SHL PUSH1 0x1 PUSH1 0x1 PUSH1 0xE0 SHL SUB NOT AND DUP2 MSTORE PUSH1 0x1 PUSH1 0x1 PUSH1 0xA0 SHL SUB SWAP1 SWAP2 AND SWAP2 DUP2 ADD SWAP2 SWAP1 SWAP2 MSTORE PUSH1 0x24 DUP2 ADD DUP5 SWAP1 MSTORE PUSH1 0x44 ADD PUSH1 0x20 PUSH1 0x40 MLOAD DUP1 DUP4 SUB DUP2 PUSH1 0x0 DUP8 DUP1 EXTCODESIZE ISZERO DUP1 ISZERO PUSH2 0x1222 JUMPI PUSH1 0x0 DUP1 REVERT JUMPDEST POP GAS CALL ISZERO DUP1 ISZERO PUSH2 0x1236 JUMPI RETURNDATASIZE PUSH1 0x0 DUP1 RETURNDATACOPY RETURNDATASIZE PUSH1 0x0 REVERT JUMPDEST POP POP POP POP PUSH1 0x40 MLOAD RETURNDATASIZE PUSH1 0x1F NOT PUSH1 0x1F DUP3 ADD AND DUP3 ADD DUP1 PUSH1 0x40 MSTORE POP DUP2 ADD SWAP1 PUSH2 0x125A SWAP2 SWAP1 PUSH2 0x14F3 JUMP JUMPDEST POP POP JUMPDEST DUP1 PUSH2 0x1267 DUP2 PUSH2 0x19FF JUMP JUMPDEST SWAP2 POP POP PUSH2 0x1134 JUMP JUMPDEST POP JUMPDEST POP POP POP POP POP POP JUMP JUMPDEST PUSH1 0x0 DUP1 SLOAD PUSH1 0x1 PUSH1 0x1 PUSH1 0xA0 SHL SUB DUP4 DUP2 AND PUSH1 0x1 PUSH1 0x1 PUSH1 0xA0 SHL SUB NOT DUP4 AND DUP2 OR DUP5 SSTORE PUSH1 0x40 MLOAD SWAP2 SWAP1 SWAP3 AND SWAP3 DUP4 SWAP2 PUSH32 0x8BE0079C531659141344CD1FD0A4F28419497F9722A3DAAFE3B4186F6B6457E0 SWAP2 SWAP1 LOG3 POP POP JUMP JUMPDEST DUP3 DUP1 SLOAD PUSH2 0x12D5 SWAP1 PUSH2 0x19C4 JUMP JUMPDEST SWAP1 PUSH1 0x0 MSTORE PUSH1 0x20 PUSH1 0x0 KECCAK256 SWAP1 PUSH1 0x1F ADD PUSH1 0x20 SWAP1 DIV DUP2 ADD SWAP3 DUP3 PUSH2 0x12F7 JUMPI PUSH1 0x0 DUP6 SSTORE PUSH2 0x133D JUMP JUMPDEST DUP3 PUSH1 0x1F LT PUSH2 0x1310 JUMPI DUP1 MLOAD PUSH1 0xFF NOT AND DUP4 DUP1 ADD OR DUP6 SSTORE PUSH2 0x133D JUMP JUMPDEST DUP3 DUP1 ADD PUSH1 0x1 ADD DUP6 SSTORE DUP3 ISZERO PUSH2 0x133D JUMPI SWAP2 DUP3 ADD JUMPDEST DUP3 DUP2 GT ISZERO PUSH2 0x133D JUMPI DUP3 MLOAD DUP3 SSTORE SWAP2 PUSH1 0x20 ADD SWAP2 SWAP1 PUSH1 0x1 ADD SWAP1 PUSH2 0x1322 JUMP JUMPDEST POP PUSH2 0x1349 SWAP3 SWAP2 POP PUSH2 0x13A6 JUMP JUMPDEST POP SWAP1 JUMP JUMPDEST DUP3 DUP1 SLOAD DUP3 DUP3 SSTORE SWAP1 PUSH1 0x0 MSTORE PUSH1 0x20 PUSH1 0x0 KECCAK256 SWAP1 DUP2 ADD SWAP3 DUP3 ISZERO PUSH2 0x139A JUMPI SWAP2 PUSH1 0x20 MUL DUP3 ADD JUMPDEST DUP3 DUP2 GT ISZERO PUSH2 0x139A JUMPI DUP3 MLOAD DUP1 MLOAD PUSH2 0x138A SWAP2 DUP5 SWAP2 PUSH1 0x20 SWAP1 SWAP2 ADD SWAP1 PUSH2 0x12C9 JUMP JUMPDEST POP SWAP2 PUSH1 0x20 ADD SWAP2 SWAP1 PUSH1 0x1 ADD SWAP1 PUSH2 0x136D JUMP JUMPDEST POP PUSH2 0x1349 SWAP3 SWAP2 POP PUSH2 0x13BB JUMP JUMPDEST JUMPDEST DUP1 DUP3 GT ISZERO PUSH2 0x1349 JUMPI PUSH1 0x0 DUP2 SSTORE PUSH1 0x1 ADD PUSH2 0x13A7 JUMP JUMPDEST DUP1 DUP3 GT ISZERO PUSH2 0x1349 JUMPI PUSH1 0x0 PUSH2 0x13CF DUP3 DUP3 PUSH2 0x13D8 JUMP JUMPDEST POP PUSH1 0x1 ADD PUSH2 0x13BB JUMP JUMPDEST POP DUP1 SLOAD PUSH2 0x13E4 SWAP1 PUSH2 0x19C4 JUMP JUMPDEST PUSH1 0x0 DUP3 SSTORE DUP1 PUSH1 0x1F LT PUSH2 0x13F4 JUMPI POP POP JUMP JUMPDEST PUSH1 0x1F ADD PUSH1 0x20 SWAP1 DIV SWAP1 PUSH1 0x0 MSTORE PUSH1 0x20 PUSH1 0x0 KECCAK256 SWAP1 DUP2 ADD SWAP1 PUSH2 0xFF7 SWAP2 SWAP1 PUSH2 0x13A6 JUMP JUMPDEST DUP1 CALLDATALOAD PUSH1 0x1 PUSH1 0x1 PUSH1 0xA0 SHL SUB DUP2 AND DUP2 EQ PUSH2 0x1429 JUMPI PUSH1 0x0 DUP1 REVERT JUMPDEST SWAP2 SWAP1 POP JUMP JUMPDEST PUSH1 0x0 DUP3 PUSH1 0x1F DUP4 ADD SLT PUSH2 0x143F JUMPI PUSH1 0x0 DUP1 REVERT JUMPDEST DUP2 CALLDATALOAD PUSH8 0xFFFFFFFFFFFFFFFF DUP2 GT ISZERO PUSH2 0x1459 JUMPI PUSH2 0x1459 PUSH2 0x1A46 JUMP JUMPDEST PUSH2 0x146C PUSH1 0x1F DUP3 ADD PUSH1 0x1F NOT AND PUSH1 0x20 ADD PUSH2 0x1923 JUMP JUMPDEST DUP2 DUP2 MSTORE DUP5 PUSH1 0x20 DUP4 DUP7 ADD ADD GT ISZERO PUSH2 0x1481 JUMPI PUSH1 0x0 DUP1 REVERT JUMPDEST DUP2 PUSH1 0x20 DUP6 ADD PUSH1 0x20 DUP4 ADD CALLDATACOPY PUSH1 0x0 SWAP2 DUP2 ADD PUSH1 0x20 ADD SWAP2 SWAP1 SWAP2 MSTORE SWAP4 SWAP3 POP POP POP JUMP JUMPDEST PUSH1 0x0 PUSH1 0x20 DUP3 DUP5 SUB SLT ISZERO PUSH2 0x14B0 JUMPI PUSH1 0x0 DUP1 REVERT JUMPDEST PUSH2 0x14B9 DUP3 PUSH2 0x1412 JUMP JUMPDEST SWAP4 SWAP3 POP POP POP JUMP JUMPDEST PUSH1 0x0 DUP1 PUSH1 0x40 DUP4 DUP6 SUB SLT ISZERO PUSH2 0x14D3 JUMPI PUSH1 0x0 DUP1 REVERT JUMPDEST PUSH2 0x14DC DUP4 PUSH2 0x1412 JUMP JUMPDEST SWAP2 POP PUSH2 0x14EA PUSH1 0x20 DUP5 ADD PUSH2 0x1412 JUMP JUMPDEST SWAP1 POP SWAP3 POP SWAP3 SWAP1 POP JUMP JUMPDEST PUSH1 0x0 PUSH1 0x20 DUP3 DUP5 SUB SLT ISZERO PUSH2 0x1505 JUMPI PUSH1 0x0 DUP1 REVERT JUMPDEST DUP2 MLOAD DUP1 ISZERO ISZERO DUP2 EQ PUSH2 0x14B9 JUMPI PUSH1 0x0 DUP1 REVERT JUMPDEST PUSH1 0x0 DUP1 PUSH1 0x0 DUP1 PUSH1 0x80 DUP6 DUP8 SUB SLT ISZERO PUSH2 0x152B JUMPI PUSH1 0x0 DUP1 REVERT JUMPDEST DUP5 CALLDATALOAD PUSH8 0xFFFFFFFFFFFFFFFF DUP1 DUP3 GT ISZERO PUSH2 0x1543 JUMPI PUSH1 0x0 DUP1 REVERT JUMPDEST PUSH2 0x154F DUP9 DUP4 DUP10 ADD PUSH2 0x142E JUMP JUMPDEST SWAP6 POP PUSH1 0x20 SWAP2 POP DUP2 DUP8 ADD CALLDATALOAD DUP2 DUP2 GT ISZERO PUSH2 0x1566 JUMPI PUSH1 0x0 DUP1 REVERT JUMPDEST DUP8 ADD PUSH1 0x1F DUP2 ADD DUP10 SGT PUSH2 0x1577 JUMPI PUSH1 0x0 DUP1 REVERT JUMPDEST DUP1 CALLDATALOAD DUP3 DUP2 GT ISZERO PUSH2 0x1589 JUMPI PUSH2 0x1589 PUSH2 0x1A46 JUMP JUMPDEST DUP1 PUSH1 0x5 SHL PUSH2 0x1598 DUP6 DUP3 ADD PUSH2 0x1923 JUMP JUMPDEST DUP3 DUP2 MSTORE DUP6 DUP2 ADD SWAP1 DUP5 DUP8 ADD DUP4 DUP7 ADD DUP9 ADD DUP15 LT ISZERO PUSH2 0x15B3 JUMPI PUSH1 0x0 DUP1 REVERT JUMPDEST PUSH1 0x0 SWAP4 POP JUMPDEST DUP5 DUP5 LT ISZERO PUSH2 0x15F2 JUMPI DUP1 CALLDATALOAD DUP8 DUP2 GT ISZERO PUSH2 0x15CF JUMPI PUSH1 0x0 DUP1 REVERT JUMPDEST PUSH2 0x15DD DUP16 DUP11 DUP4 DUP11 ADD ADD PUSH2 0x142E JUMP JUMPDEST DUP5 MSTORE POP PUSH1 0x1 SWAP4 SWAP1 SWAP4 ADD SWAP3 SWAP2 DUP8 ADD SWAP2 DUP8 ADD PUSH2 0x15B8 JUMP JUMPDEST POP DUP1 SWAP10 POP POP POP POP POP POP POP POP PUSH1 0x40 DUP6 ADD CALLDATALOAD SWAP2 POP PUSH2 0x1610 PUSH1 0x60 DUP7 ADD PUSH2 0x1412 JUMP JUMPDEST SWAP1 POP SWAP3 SWAP6 SWAP2 SWAP5 POP SWAP3 POP JUMP JUMPDEST PUSH1 0x0 PUSH1 0x20 DUP3 DUP5 SUB SLT ISZERO PUSH2 0x162D JUMPI PUSH1 0x0 DUP1 REVERT JUMPDEST POP CALLDATALOAD SWAP2 SWAP1 POP JUMP JUMPDEST PUSH1 0x0 DUP1 PUSH1 0x40 DUP4 DUP6 SUB SLT ISZERO PUSH2 0x1647 JUMPI PUSH1 0x0 DUP1 REVERT JUMPDEST DUP3 CALLDATALOAD SWAP2 POP PUSH2 0x14EA PUSH1 0x20 DUP5 ADD PUSH2 0x1412 JUMP JUMPDEST PUSH1 0x0 DUP1 PUSH1 0x40 DUP4 DUP6 SUB SLT ISZERO PUSH2 0x166A JUMPI PUSH1 0x0 DUP1 REVERT JUMPDEST POP POP DUP1 CALLDATALOAD SWAP3 PUSH1 0x20 SWAP1 SWAP2 ADD CALLDATALOAD SWAP2 POP JUMP JUMPDEST PUSH1 0x0 DUP1 PUSH1 0x0 DUP1 PUSH1 0x80 DUP6 DUP8 SUB SLT ISZERO PUSH2 0x168F JUMPI PUSH1 0x0 DUP1 REVERT JUMPDEST DUP5 CALLDATALOAD SWAP4 POP PUSH1 0x20 DUP6 ADD CALLDATALOAD SWAP3 POP PUSH1 0x40 DUP6 ADD CALLDATALOAD SWAP2 POP PUSH2 0x1610 PUSH1 0x60 DUP7 ADD PUSH2 0x1412 JUMP JUMPDEST PUSH1 0x0 DUP1 PUSH1 0x0 DUP1 PUSH1 0x0 PUSH1 0xA0 DUP7 DUP9 SUB SLT ISZERO PUSH2 0x16C5 JUMPI PUSH1 0x0 DUP1 REVERT JUMPDEST DUP6 CALLDATALOAD SWAP5 POP PUSH1 0x20 DUP7 ADD CALLDATALOAD SWAP4 POP PUSH1 0x40 DUP7 ADD CALLDATALOAD SWAP3 POP PUSH2 0x16E3 PUSH1 0x60 DUP8 ADD PUSH2 0x1412 JUMP JUMPDEST SWAP2 POP PUSH2 0x16F1 PUSH1 0x80 DUP8 ADD PUSH2 0x1412 JUMP JUMPDEST SWAP1 POP SWAP3 SWAP6 POP SWAP3 SWAP6 SWAP1 SWAP4 POP JUMP JUMPDEST PUSH1 0x0 DUP2 MLOAD DUP1 DUP5 MSTORE PUSH1 0x0 JUMPDEST DUP2 DUP2 LT ISZERO PUSH2 0x1723 JUMPI PUSH1 0x20 DUP2 DUP6 ADD DUP2 ADD MLOAD DUP7 DUP4 ADD DUP3 ADD MSTORE ADD PUSH2 0x1707 JUMP JUMPDEST DUP2 DUP2 GT ISZERO PUSH2 0x1735 JUMPI PUSH1 0x0 PUSH1 0x20 DUP4 DUP8 ADD ADD MSTORE JUMPDEST POP PUSH1 0x1F ADD PUSH1 0x1F NOT AND SWAP3 SWAP1 SWAP3 ADD PUSH1 0x20 ADD SWAP3 SWAP2 POP POP JUMP JUMPDEST PUSH1 0x20 DUP2 MSTORE PUSH1 0x0 PUSH2 0x14B9 PUSH1 0x20 DUP4 ADD DUP5 PUSH2 0x16FD JUMP JUMPDEST PUSH1 0xA0 DUP2 MSTORE PUSH1 0x0 PUSH2 0x1770 PUSH1 0xA0 DUP4 ADD DUP9 PUSH2 0x16FD JUMP JUMPDEST PUSH1 0x20 DUP4 ADD SWAP7 SWAP1 SWAP7 MSTORE POP SWAP3 ISZERO ISZERO PUSH1 0x40 DUP5 ADD MSTORE PUSH1 0x60 DUP4 ADD SWAP2 SWAP1 SWAP2 MSTORE PUSH1 0x1 PUSH1 0x1 PUSH1 0xA0 SHL SUB AND PUSH1 0x80 SWAP1 SWAP2 ADD MSTORE SWAP2 SWAP1 POP JUMP JUMPDEST PUSH1 0x20 DUP1 DUP3 MSTORE PUSH1 0x11 SWAP1 DUP3 ADD MSTORE PUSH17 0x125B9D985B1A59081B585C9AD95D081251 PUSH1 0x7A SHL PUSH1 0x40 DUP3 ADD MSTORE PUSH1 0x60 ADD SWAP1 JUMP JUMPDEST PUSH1 0x20 DUP1 DUP3 MSTORE PUSH1 0x17 SWAP1 DUP3 ADD MSTORE PUSH32 0x4D61726B657420616C7265616479207265736F6C766564000000000000000000 PUSH1 0x40 DUP3 ADD MSTORE PUSH1 0x60 ADD SWAP1 JUMP JUMPDEST PUSH1 0x20 DUP1 DUP3 MSTORE PUSH1 0x30 SWAP1 DUP3 ADD MSTORE PUSH32 0x4D757374207374616B65206174206C65617374203120746F6B656E20666F7220 PUSH1 0x40 DUP3 ADD MSTORE PUSH16 0x537962696C20726573697374616E6365 PUSH1 0x80 SHL PUSH1 0x60 DUP3 ADD MSTORE PUSH1 0x80 ADD SWAP1 JUMP JUMPDEST PUSH1 0x20 DUP1 DUP3 MSTORE PUSH1 0x24 SWAP1 DUP3 ADD MSTORE PUSH32 0x42657420616D6F756E74206D7573742062652067726561746572207468616E20 PUSH1 0x40 DUP3 ADD MSTORE PUSH4 0x7A65726F PUSH1 0xE0 SHL PUSH1 0x60 DUP3 ADD MSTORE PUSH1 0x80 ADD SWAP1 JUMP JUMPDEST DUP6 DUP2 MSTORE PUSH1 0x0 PUSH1 0x20 PUSH1 0xA0 DUP2 DUP5 ADD MSTORE PUSH2 0x18AD PUSH1 0xA0 DUP5 ADD DUP9 PUSH2 0x16FD JUMP JUMPDEST DUP4 DUP2 SUB PUSH1 0x40 DUP6 ADD MSTORE DUP7 MLOAD DUP1 DUP3 MSTORE DUP3 DUP3 ADD SWAP1 PUSH1 0x5 DUP2 SWAP1 SHL DUP4 ADD DUP5 ADD DUP5 DUP11 ADD PUSH1 0x0 JUMPDEST DUP4 DUP2 LT ISZERO PUSH2 0x18FB JUMPI PUSH1 0x1F NOT DUP7 DUP5 SUB ADD DUP6 MSTORE PUSH2 0x18E9 DUP4 DUP4 MLOAD PUSH2 0x16FD JUMP JUMPDEST SWAP5 DUP8 ADD SWAP5 SWAP3 POP SWAP1 DUP7 ADD SWAP1 PUSH1 0x1 ADD PUSH2 0x18CD JUMP JUMPDEST POP POP PUSH1 0x60 DUP8 ADD SWAP9 SWAP1 SWAP9 MSTORE POP POP POP POP PUSH1 0x1 PUSH1 0x1 PUSH1 0xA0 SHL SUB SWAP3 SWAP1 SWAP3 AND PUSH1 0x80 SWAP1 SWAP2 ADD MSTORE POP SWAP4 SWAP3 POP POP POP JUMP JUMPDEST PUSH1 0x40 MLOAD PUSH1 0x1F DUP3 ADD PUSH1 0x1F NOT AND DUP2 ADD PUSH8 0xFFFFFFFFFFFFFFFF DUP2 GT DUP3 DUP3 LT OR ISZERO PUSH2 0x194C JUMPI PUSH2 0x194C PUSH2 0x1A46 JUMP JUMPDEST PUSH1 0x40 MSTORE SWAP2 SWAP1 POP JUMP JUMPDEST PUSH1 0x0 DUP3 NOT DUP3 GT ISZERO PUSH2 0x1967 JUMPI PUSH2 0x1967 PUSH2 0x1A1A JUMP JUMPDEST POP ADD SWAP1 JUMP JUMPDEST PUSH1 0x0 DUP3 PUSH2 0x1989 JUMPI PUSH4 0x4E487B71 PUSH1 0xE0 SHL PUSH1 0x0 MSTORE PUSH1 0x12 PUSH1 0x4 MSTORE PUSH1 0x24 PUSH1 0x0 REVERT JUMPDEST POP DIV SWAP1 JUMP JUMPDEST PUSH1 0x0 DUP2 PUSH1 0x0 NOT DIV DUP4 GT DUP3 ISZERO ISZERO AND ISZERO PUSH2 0x19A8 JUMPI PUSH2 0x19A8 PUSH2 0x1A1A JUMP JUMPDEST POP MUL SWAP1 JUMP JUMPDEST PUSH1 0x0 DUP3 DUP3 LT ISZERO PUSH2 0x19BF JUMPI PUSH2 0x19BF PUSH2 0x1A1A JUMP JUMPDEST POP SUB SWAP1 JUMP JUMPDEST PUSH1 0x1 DUP2 DUP2 SHR SWAP1 DUP3 AND DUP1 PUSH2 0x19D8 JUMPI PUSH1 0x7F DUP3 AND SWAP2 POP JUMPDEST PUSH1 0x20 DUP3 LT DUP2 EQ ISZERO PUSH2 0x19F9 JUMPI PUSH4 0x4E487B71 PUSH1 0xE0 SHL PUSH1 0x0 MSTORE PUSH1 0x22 PUSH1 0x4 MSTORE PUSH1 0x24 PUSH1 0x0 REVERT JUMPDEST POP SWAP2 SWAP1 POP JUMP JUMPDEST PUSH1 0x0 PUSH1 0x0 NOT DUP3 EQ ISZERO PUSH2 0x1A13 JUMPI PUSH2 0x1A13 PUSH2 0x1A1A JUMP JUMPDEST POP PUSH1 0x1 ADD SWAP1 JUMP JUMPDEST PUSH4 0x4E487B71 PUSH1 0xE0 SHL PUSH1 0x0 MSTORE PUSH1 0x11 PUSH1 0x4 MSTORE PUSH1 0x24 PUSH1 0x0 REVERT JUMPDEST PUSH4 0x4E487B71 PUSH1 0xE0 SHL PUSH1 0x0 MSTORE PUSH1 0x32 PUSH1 0x4 MSTORE PUSH1 0x24 PUSH1 0x0 REVERT JUMPDEST PUSH4 0x4E487B71 PUSH1 0xE0 SHL PUSH1 0x0 MSTORE PUSH1 0x41 PUSH1 0x4 MSTORE PUSH1 0x24 PUSH1 0x0 REVERT INVALID LOG2 PUSH5 0x6970667358 0x22 SLT KECCAK256 0x1F DUP9 CODESIZE 0xB2 0xCB SHR 0xEC 0xD SELFBALANCE PUSH19 0x77BCA658C0108ADC822E12427E1E1C212C53FF REVERT PUSH7 0x9964736F6C6343 STOP ADDMOD SMOD STOP CALLER "},"methodIdentifiers":{"BET_FEE()":"f6c9eda0","MIN_STAKE()":"cb1c2b5c","bettingToken()":"43425e88","createMarket(string,string[],uint256,address)":"e14ec959","getOutcomesLength(uint256)":"f0c68c1e","marketBets(uint256,uint256)":"f2e55021","marketCount()":"ec979082","marketOutcomes(uint256,uint256)":"b402f1f5","markets(uint256)":"b1283e77","owner()":"8da5cb5b","placeBet(uint256,uint256,uint256,address)":"4e3978b3","renounceOwnership()":"715018a6","resolveMarket(uint256,uint256)":"60557333","simulateCrossChainCall(uint256,uint256,uint256,address,address)":"d5bea1e4","stakeTokens(uint256,address)":"0bea440d","stakes(address,address)":"a4e47b66","transferOwnership(address)":"f2fde38b"}}}}}