{
  "_format": "hh-sol-artifact-1",
  "contractName": "PredictionMarket",
  "sourceName": "contracts/PredictionMarket.sol",
  "abi": [
    {
      "inputs": [
        {
          "internalType": "address",
          "name": "_bettingToken",
          "type": "address"
        }
      ],
      "stateMutability": "nonpayable",
      "type": "constructor"
    },
    {
      "anonymous": false,
      "inputs": [
        {
          "indexed": false,
          "internalType": "uint256",
          "name": "marketId",
          "type": "uint256"
        },
        {
          "indexed": false,
          "internalType": "address",
          "name": "user",
          "type": "address"
        },
        {
          "indexed": false,
          "internalType": "uint256",
          "name": "amount",
          "type": "uint256"
        },
        {
          "indexed": false,
          "internalType": "uint256",
          "name": "outcomeIndex",
          "type": "uint256"
        },
        {
          "indexed": false,
          "internalType": "address",
          "name": "token",
          "type": "address"
        }
      ],
      "name": "BetPlaced",
      "type": "event"
    },
    {
      "anonymous": false,
      "inputs": [
        {
          "indexed": false,
          "internalType": "uint256",
          "name": "marketId",
          "type": "uint256"
        },
        {
          "indexed": false,
          "internalType": "string",
          "name": "question",
          "type": "string"
        },
        {
          "indexed": false,
          "internalType": "string[]",
          "name": "outcomes",
          "type": "string[]"
        },
        {
          "indexed": false,
          "internalType": "uint256",
          "name": "resolutionTime",
          "type": "uint256"
        },
        {
          "indexed": false,
          "internalType": "address",
          "name": "bettingAsset",
          "type": "address"
        }
      ],
      "name": "MarketCreated",
      "type": "event"
    },
    {
      "anonymous": false,
      "inputs": [
        {
          "indexed": false,
          "internalType": "uint256",
          "name": "marketId",
          "type": "uint256"
        },
        {
          "indexed": false,
          "internalType": "uint256",
          "name": "winningOutcome",
          "type": "uint256"
        }
      ],
      "name": "MarketResolved",
      "type": "event"
    },
    {
      "anonymous": false,
      "inputs": [
        {
          "indexed": true,
          "internalType": "address",
          "name": "previousOwner",
          "type": "address"
        },
        {
          "indexed": true,
          "internalType": "address",
          "name": "newOwner",
          "type": "address"
        }
      ],
      "name": "OwnershipTransferred",
      "type": "event"
    },
    {
      "inputs": [],
      "name": "BET_FEE",
      "outputs": [
        {
          "internalType": "uint256",
          "name": "",
          "type": "uint256"
        }
      ],
      "stateMutability": "view",
      "type": "function"
    },
    {
      "inputs": [],
      "name": "MIN_STAKE",
      "outputs": [
        {
          "internalType": "uint256",
          "name": "",
          "type": "uint256"
        }
      ],
      "stateMutability": "view",
      "type": "function"
    },
    {
      "inputs": [],
      "name": "bettingToken",
      "outputs": [
        {
          "internalType": "contract IERC20",
          "name": "",
          "type": "address"
        }
      ],
      "stateMutability": "view",
      "type": "function"
    },
    {
      "inputs": [
        {
          "internalType": "string",
          "name": "_question",
          "type": "string"
        },
        {
          "internalType": "string[]",
          "name": "_outcomes",
          "type": "string[]"
        },
        {
          "internalType": "uint256",
          "name": "_resolutionTime",
          "type": "uint256"
        },
        {
          "internalType": "address",
          "name": "_bettingAsset",
          "type": "address"
        }
      ],
      "name": "createMarket",
      "outputs": [],
      "stateMutability": "nonpayable",
      "type": "function"
    },
    {
      "inputs": [
        {
          "internalType": "uint256",
          "name": "_marketId",
          "type": "uint256"
        }
      ],
      "name": "getOutcomesLength",
      "outputs": [
        {
          "internalType": "uint256",
          "name": "",
          "type": "uint256"
        }
      ],
      "stateMutability": "view",
      "type": "function"
    },
    {
      "inputs": [
        {
          "internalType": "uint256",
          "name": "",
          "type": "uint256"
        },
        {
          "internalType": "uint256",
          "name": "",
          "type": "uint256"
        }
      ],
      "name": "marketBets",
      "outputs": [
        {
          "internalType": "address",
          "name": "user",
          "type": "address"
        },
        {
          "internalType": "uint256",
          "name": "amount",
          "type": "uint256"
        },
        {
          "internalType": "uint256",
          "name": "outcomeIndex",
          "type": "uint256"
        },
        {
          "internalType": "address",
          "name": "token",
          "type": "address"
        }
      ],
      "stateMutability": "view",
      "type": "function"
    },
    {
      "inputs": [],
      "name": "marketCount",
      "outputs": [
        {
          "internalType": "uint256",
          "name": "",
          "type": "uint256"
        }
      ],
      "stateMutability": "view",
      "type": "function"
    },
    {
      "inputs": [
        {
          "internalType": "uint256",
          "name": "",
          "type": "uint256"
        },
        {
          "internalType": "uint256",
          "name": "",
          "type": "uint256"
        }
      ],
      "name": "marketOutcomes",
      "outputs": [
        {
          "internalType": "string",
          "name": "",
          "type": "string"
        }
      ],
      "stateMutability": "view",
      "type": "function"
    },
    {
      "inputs": [
        {
          "internalType": "uint256",
          "name": "",
          "type": "uint256"
        }
      ],
      "name": "markets",
      "outputs": [
        {
          "internalType": "string",
          "name": "question",
          "type": "string"
        },
        {
          "internalType": "uint256",
          "name": "resolutionTime",
          "type": "uint256"
        },
        {
          "internalType": "bool",
          "name": "resolved",
          "type": "bool"
        },
        {
          "internalType": "uint256",
          "name": "winningOutcome",
          "type": "uint256"
        },
        {
          "internalType": "address",
          "name": "bettingAsset",
          "type": "address"
        }
      ],
      "stateMutability": "view",
      "type": "function"
    },
    {
      "inputs": [],
      "name": "owner",
      "outputs": [
        {
          "internalType": "address",
          "name": "",
          "type": "address"
        }
      ],
      "stateMutability": "view",
      "type": "function"
    },
    {
      "inputs": [
        {
          "internalType": "uint256",
          "name": "_marketId",
          "type": "uint256"
        },
        {
          "internalType": "uint256",
          "name": "_outcomeIndex",
          "type": "uint256"
        },
        {
          "internalType": "uint256",
          "name": "_amount",
          "type": "uint256"
        },
        {
          "internalType": "address",
          "name": "_tokenAddress",
          "type": "address"
        }
      ],
      "name": "placeBet",
      "outputs": [],
      "stateMutability": "nonpayable",
      "type": "function"
    },
    {
      "inputs": [],
      "name": "renounceOwnership",
      "outputs": [],
      "stateMutability": "nonpayable",
      "type": "function"
    },
    {
      "inputs": [
        {
          "internalType": "uint256",
          "name": "_marketId",
          "type": "uint256"
        },
        {
          "internalType": "uint256",
          "name": "_winningOutcome",
          "type": "uint256"
        }
      ],
      "name": "resolveMarket",
      "outputs": [],
      "stateMutability": "nonpayable",
      "type": "function"
    },
    {
      "inputs": [
        {
          "internalType": "uint256",
          "name": "marketId",
          "type": "uint256"
        },
        {
          "internalType": "uint256",
          "name": "amount",
          "type": "uint256"
        },
        {
          "internalType": "uint256",
          "name": "outcomeIndex",
          "type": "uint256"
        },
        {
          "internalType": "address",
          "name": "user",
          "type": "address"
        },
        {
          "internalType": "address",
          "name": "tokenAddress",
          "type": "address"
        }
      ],
      "name": "simulateCrossChainCall",
      "outputs": [],
      "stateMutability": "nonpayable",
      "type": "function"
    },
    {
      "inputs": [
        {
          "internalType": "uint256",
          "name": "amount",
          "type": "uint256"
        },
        {
          "internalType": "address",
          "name": "tokenAddress",
          "type": "address"
        }
      ],
      "name": "stakeTokens",
      "outputs": [],
      "stateMutability": "nonpayable",
      "type": "function"
    },
    {
      "inputs": [
        {
          "internalType": "address",
          "name": "",
          "type": "address"
        },
        {
          "internalType": "address",
          "name": "",
          "type": "address"
        }
      ],
      "name": "stakes",
      "outputs": [
        {
          "internalType": "uint256",
          "name": "",
          "type": "uint256"
        }
      ],
      "stateMutability": "view",
      "type": "function"
    },
    {
      "inputs": [
        {
          "internalType": "address",
          "name": "newOwner",
          "type": "address"
        }
      ],
      "name": "transferOwnership",
      "outputs": [],
      "stateMutability": "nonpayable",
      "type": "function"
    }
  ],
  "bytecode": "0x608060405234801561001057600080fd5b5060405162001b8138038062001b81833981016040819052610031916100af565b61003a3361005f565b600180546001600160a01b0319166001600160a01b03929092169190911790556100df565b600080546001600160a01b038381166001600160a01b0319831681178455604051919092169283917f8be0079c531659141344cd1fd0a4f28419497f9722a3daafe3b4186f6b6457e09190a35050565b6000602082840312156100c157600080fd5b81516001600160a01b03811681146100d857600080fd5b9392505050565b611a9280620000ef6000396000f3fe608060405234801561001057600080fd5b506004361061010b5760003560e01c8063b402f1f5116100a2578063ec97908211610071578063ec97908214610246578063f0c68c1e1461024f578063f2e5502114610262578063f2fde38b146102a4578063f6c9eda0146102b757600080fd5b8063b402f1f5146101f1578063cb1c2b5c14610211578063d5bea1e414610220578063e14ec9591461023357600080fd5b8063715018a6116100de578063715018a61461017b5780638da5cb5b14610183578063a4e47b6614610194578063b1283e77146101cd57600080fd5b80630bea440d1461011057806343425e88146101255780634e3978b3146101555780636055733314610168575b600080fd5b61012361011e366004611634565b6102c5565b005b600154610138906001600160a01b031681565b6040516001600160a01b0390911681526020015b60405180910390f35b610123610163366004611679565b610388565b610123610176366004611657565b6106f8565b610123610880565b6000546001600160a01b0316610138565b6101bf6101a23660046114c0565b600560209081526000928352604080842090915290825290205481565b60405190815260200161014c565b6101e06101db36600461161b565b610894565b60405161014c95949392919061175d565b6102046101ff366004611657565b610958565b60405161014c919061174a565b6101bf670de0b6b3a764000081565b61012361022e3660046116ad565b610a11565b610123610241366004611515565b610cf7565b6101bf60065481565b6101bf61025d36600461161b565b610eed565b610275610270366004611657565b610f2f565b604080516001600160a01b0395861681526020810194909452830191909152909116606082015260800161014c565b6101236102b236600461149e565b610f81565b6101bf662386f26fc1000081565b6040516323b872dd60e01b8152336004820152306024820152604481018390526001600160a01b038216906323b872dd90606401602060405180830381600087803b15801561031357600080fd5b505af1158015610327573d6000803e3d6000fd5b505050506040513d601f19601f8201168201806040525081019061034b91906114f3565b503360009081526005602090815260408083206001600160a01b03851684529091528120805484929061037f908490611954565b90915550505050565b60008411801561039a57506006548411155b6103bf5760405162461bcd60e51b81526004016103b69061179d565b60405180910390fd5b600082116103df5760405162461bcd60e51b81526004016103b69061184f565b60008481526002602081905260409091200154421061043b5760405162461bcd60e51b815260206004820152601860248201527710995d1d1a5b99c81c195c9a5bd9081a185cc8195b99195960421b60448201526064016103b6565b60008481526002602052604090206003015460ff161561046d5760405162461bcd60e51b81526004016103b6906117c8565b60008481526003602052604090205483106104c25760405162461bcd60e51b8152602060048201526015602482015274092dcecc2d8d2c840deeae8c6dedaca40d2dcc8caf605b1b60448201526064016103b6565b6000848152600260205260409020600501546001600160a01b0382811691161461052e5760405162461bcd60e51b815260206004820152601d60248201527f496e76616c696420746f6b656e20666f722074686973206d61726b657400000060448201526064016103b6565b3360009081526005602090815260408083206001600160a01b0385168452909152902054670de0b6b3a764000011156105795760405162461bcd60e51b81526004016103b6906117ff565b600061058c662386f26fc1000084611954565b6040516323b872dd60e01b8152336004820152306024820152604481018290529091506001600160a01b038316906323b872dd90606401602060405180830381600087803b1580156105dd57600080fd5b505af11580156105f1573d6000803e3d6000fd5b505050506040513d601f19601f8201168201806040525081019061061591906114f3565b506000858152600460208181526040808420815160808082018452338083528286018b81528386018d81526001600160a01b038c81166060808801828152895460018082018c559a8f529d8c902098519d909c0290970180546001600160a01b03199081169d84169d909d1781559351978401979097559051600283015597516003909101805490991697169690961790965582518b815293840194909452908201879052918101879052918201527f0c8bcdba2d7eab17e989c0f1127e932c79e9d78a8420f1be088be84be6d76fe89060a00160405180910390a15050505050565b610700610ffa565b60008211801561071257506006548211155b61072e5760405162461bcd60e51b81526004016103b69061179d565b600082815260026020819052604090912001544210156107875760405162461bcd60e51b8152602060048201526014602482015273546f6f206561726c7920746f207265736f6c766560601b60448201526064016103b6565b60008281526002602052604090206003015460ff16156107b95760405162461bcd60e51b81526004016103b6906117c8565b60008281526003602052604090205481106108165760405162461bcd60e51b815260206004820152601760248201527f496e76616c69642077696e6e696e67206f7574636f6d6500000000000000000060448201526064016103b6565b600082815260026020526040902060038101805460ff191660011790556004018190556108438282611054565b60408051838152602081018390527f6dfc24f0f2fb42e49fb4fa3ffa8abb148cab908a1fb8335b3f128a08b2594af1910160405180910390a15050565b610888610ffa565b6108926000611279565b565b6002602052600090815260409020805481906108af906119c4565b80601f01602080910402602001604051908101604052809291908181526020018280546108db906119c4565b80156109285780601f106108fd57610100808354040283529160200191610928565b820191906000526020600020905b81548152906001019060200180831161090b57829003601f168201915b505050506002830154600384015460048501546005909501549394919360ff90911692506001600160a01b031685565b6003602052816000526040600020818154811061097457600080fd5b90600052602060002001600091509150508054610990906119c4565b80601f01602080910402602001604051908101604052809291908181526020018280546109bc906119c4565b8015610a095780601f106109de57610100808354040283529160200191610a09565b820191906000526020600020905b8154815290600101906020018083116109ec57829003601f168201915b505050505081565b600085118015610a2357506006548511155b610a3f5760405162461bcd60e51b81526004016103b69061179d565b60008411610a5f5760405162461bcd60e51b81526004016103b69061184f565b600085815260026020819052604090912001544210610abb5760405162461bcd60e51b815260206004820152601860248201527710995d1d1a5b99c81c195c9a5bd9081a185cc8195b99195960421b60448201526064016103b6565b60008581526002602052604090206003015460ff1615610aed5760405162461bcd60e51b81526004016103b6906117c8565b6000858152600360205260409020548310610b425760405162461bcd60e51b8152602060048201526015602482015274092dcecc2d8d2c840deeae8c6dedaca40d2dcc8caf605b1b60448201526064016103b6565b6000858152600260205260409020600501546001600160a01b03828116911614610bae5760405162461bcd60e51b815260206004820152601d60248201527f496e76616c696420746f6b656e20666f722074686973206d61726b657400000060448201526064016103b6565b6001600160a01b03808316600090815260056020908152604080832093851683529290522054670de0b6b3a76400001115610bfb5760405162461bcd60e51b81526004016103b6906117ff565b6000610c0e662386f26fc10000866119ad565b60008781526004602081815260408084208151608080820184526001600160a01b038b81168084528387018a81528487018f81528d84166060808801828152895460018082018c559a8f529d8c902098519d909c0290970180546001600160a01b03199081169d87169d909d178155925197830197909755516002820155975160039098018054909916979091169690961790965582518d815293840194909452908201859052918101889052918201529091507f0c8bcdba2d7eab17e989c0f1127e932c79e9d78a8420f1be088be84be6d76fe89060a00160405180910390a1505050505050565b428211610d545760405162461bcd60e51b815260206004820152602560248201527f5265736f6c7574696f6e2074696d65206d75737420626520696e207468652066604482015264757475726560d81b60648201526084016103b6565b600283511015610da65760405162461bcd60e51b815260206004820152601e60248201527f4174206c656173742074776f206f7574636f6d6573207265717569726564000060448201526064016103b6565b60068054906000610db6836119ff565b90915550506040805160c0810182528581526020808201869052818301859052600060608301819052608083018190526001600160a01b03851660a0840152600654815260028252929092208151805192939192610e1792849201906112c9565b506020828101518051610e30926001850192019061134d565b50604082810151600283015560608301516003808401805460ff1916921515929092179091556080840151600484015560a090930151600590920180546001600160a01b0319166001600160a01b039093169290921790915560065460009081526020928352208451610ea59286019061134d565b507fcdbddd7cdb96b0cf3143b6a445a9fd5f49db9adb1c70bf7715f68fc69c2d7dc560065485858585604051610edf959493929190611893565b60405180910390a150505050565b60008082118015610f0057506006548211155b610f1c5760405162461bcd60e51b81526004016103b69061179d565b5060009081526003602052604090205490565b60046020528160005260406000208181548110610f4b57600080fd5b600091825260209091206004909102018054600182015460028301546003909301546001600160a01b0392831695509093501684565b610f89610ffa565b6001600160a01b038116610fee5760405162461bcd60e51b815260206004820152602660248201527f4f776e61626c653a206e6577206f776e657220697320746865207a65726f206160448201526564647265737360d01b60648201526084016103b6565b610ff781611279565b50565b6000546001600160a01b031633146108925760405162461bcd60e51b815260206004820181905260248201527f4f776e61626c653a2063616c6c6572206973206e6f7420746865206f776e657260448201526064016103b6565b6000828152600460209081526040808320600290925282206005015490916001600160a01b039091169080805b845481101561112a5784818154811061109c5761109c611a30565b906000526020600020906004020160010154836110b99190611954565b9250858582815481106110ce576110ce611a30565b9060005260206000209060040201600201541415611118578481815481106110f8576110f8611a30565b906000526020600020906004020160010154826111159190611954565b91505b80611122816119ff565b915050611081565b5080156112715760005b845481101561126f578585828154811061115057611150611a30565b906000526020600020906004020160020154141561125d576000828487848154811061117e5761117e611a30565b90600052602060002090600402016001015461119a919061198e565b6111a4919061196c565b9050846001600160a01b031663a9059cbb8784815481106111c7576111c7611a30565b600091825260209091206004918202015460405160e084901b6001600160e01b03191681526001600160a01b039091169181019190915260248101849052604401602060405180830381600087803b15801561122257600080fd5b505af1158015611236573d6000803e3d6000fd5b505050506040513d601f19601f8201168201806040525081019061125a91906114f3565b50505b80611267816119ff565b915050611134565b505b505050505050565b600080546001600160a01b038381166001600160a01b0319831681178455604051919092169283917f8be0079c531659141344cd1fd0a4f28419497f9722a3daafe3b4186f6b6457e09190a35050565b8280546112d5906119c4565b90600052602060002090601f0160209004810192826112f7576000855561133d565b82601f1061131057805160ff191683800117855561133d565b8280016001018555821561133d579182015b8281111561133d578251825591602001919060010190611322565b506113499291506113a6565b5090565b82805482825590600052602060002090810192821561139a579160200282015b8281111561139a578251805161138a9184916020909101906112c9565b509160200191906001019061136d565b506113499291506113bb565b5b8082111561134957600081556001016113a7565b808211156113495760006113cf82826113d8565b506001016113bb565b5080546113e4906119c4565b6000825580601f106113f4575050565b601f016020900490600052602060002090810190610ff791906113a6565b80356001600160a01b038116811461142957600080fd5b919050565b600082601f83011261143f57600080fd5b813567ffffffffffffffff81111561145957611459611a46565b61146c601f8201601f1916602001611923565b81815284602083860101111561148157600080fd5b816020850160208301376000918101602001919091529392505050565b6000602082840312156114b057600080fd5b6114b982611412565b9392505050565b600080604083850312156114d357600080fd5b6114dc83611412565b91506114ea60208401611412565b90509250929050565b60006020828403121561150557600080fd5b815180151581146114b957600080fd5b6000806000806080858703121561152b57600080fd5b843567ffffffffffffffff8082111561154357600080fd5b61154f8883890161142e565b955060209150818701358181111561156657600080fd5b8701601f8101891361157757600080fd5b80358281111561158957611589611a46565b8060051b611598858201611923565b8281528581019084870183860188018e10156115b357600080fd5b600093505b848410156115f2578035878111156115cf57600080fd5b6115dd8f8a838a010161142e565b845250600193909301929187019187016115b8565b50809950505050505050506040850135915061161060608601611412565b905092959194509250565b60006020828403121561162d57600080fd5b5035919050565b6000806040838503121561164757600080fd5b823591506114ea60208401611412565b6000806040838503121561166a57600080fd5b50508035926020909101359150565b6000806000806080858703121561168f57600080fd5b84359350602085013592506040850135915061161060608601611412565b600080600080600060a086880312156116c557600080fd5b8535945060208601359350604086013592506116e360608701611412565b91506116f160808701611412565b90509295509295909350565b6000815180845260005b8181101561172357602081850181015186830182015201611707565b81811115611735576000602083870101525b50601f01601f19169290920160200192915050565b6020815260006114b960208301846116fd565b60a08152600061177060a08301886116fd565b602083019690965250921515604084015260608301919091526001600160a01b0316608090910152919050565b602080825260119082015270125b9d985b1a59081b585c9ad95d081251607a1b604082015260600190565b60208082526017908201527f4d61726b657420616c7265616479207265736f6c766564000000000000000000604082015260600190565b60208082526030908201527f4d757374207374616b65206174206c65617374203120746f6b656e20666f722060408201526f537962696c20726573697374616e636560801b606082015260800190565b60208082526024908201527f42657420616d6f756e74206d7573742062652067726561746572207468616e206040820152637a65726f60e01b606082015260800190565b8581526000602060a0818401526118ad60a08401886116fd565b8381036040850152865180825282820190600581901b83018401848a0160005b838110156118fb57601f198684030185526118e98383516116fd565b948701949250908601906001016118cd565b50506060870198909852505050506001600160a01b0392909216608090910152509392505050565b604051601f8201601f1916810167ffffffffffffffff8111828210171561194c5761194c611a46565b604052919050565b6000821982111561196757611967611a1a565b500190565b60008261198957634e487b7160e01b600052601260045260246000fd5b500490565b60008160001904831182151516156119a8576119a8611a1a565b500290565b6000828210156119bf576119bf611a1a565b500390565b600181811c908216806119d857607f821691505b602082108114156119f957634e487b7160e01b600052602260045260246000fd5b50919050565b6000600019821415611a1357611a13611a1a565b5060010190565b634e487b7160e01b600052601160045260246000fd5b634e487b7160e01b600052603260045260246000fd5b634e487b7160e01b600052604160045260246000fdfea26469706673582212201f8838b2cb1cec0d477277bca658c0108adc822e12427e1e1c212c53fffd669964736f6c63430008070033",
  "linkReferences": {},
  "deployedLinkReferences": {}
}